{
  "_format": "hh-sol-artifact-1",
  "contractName": "GameCollection",
  "sourceName": "contracts/GameCollection.sol",
  "abi": [
    {
      "inputs": [],
      "stateMutability": "nonpayable",
      "type": "constructor"
    },
    {
      "inputs": [
        {
          "internalType": "address",
          "name": "sender",
          "type": "address"
        },
        {
          "internalType": "uint256",
          "name": "balance",
          "type": "uint256"
        },
        {
          "internalType": "uint256",
          "name": "needed",
          "type": "uint256"
        },
        {
          "internalType": "uint256",
          "name": "tokenId",
          "type": "uint256"
        }
      ],
      "name": "ERC1155InsufficientBalance",
      "type": "error"
    },
    {
      "inputs": [
        {
          "internalType": "address",
          "name": "approver",
          "type": "address"
        }
      ],
      "name": "ERC1155InvalidApprover",
      "type": "error"
    },
    {
      "inputs": [
        {
          "internalType": "uint256",
          "name": "idsLength",
          "type": "uint256"
        },
        {
          "internalType": "uint256",
          "name": "valuesLength",
          "type": "uint256"
        }
      ],
      "name": "ERC1155InvalidArrayLength",
      "type": "error"
    },
    {
      "inputs": [
        {
          "internalType": "address",
          "name": "operator",
          "type": "address"
        }
      ],
      "name": "ERC1155InvalidOperator",
      "type": "error"
    },
    {
      "inputs": [
        {
          "internalType": "address",
          "name": "receiver",
          "type": "address"
        }
      ],
      "name": "ERC1155InvalidReceiver",
      "type": "error"
    },
    {
      "inputs": [
        {
          "internalType": "address",
          "name": "sender",
          "type": "address"
        }
      ],
      "name": "ERC1155InvalidSender",
      "type": "error"
    },
    {
      "inputs": [
        {
          "internalType": "address",
          "name": "operator",
          "type": "address"
        },
        {
          "internalType": "address",
          "name": "owner",
          "type": "address"
        }
      ],
      "name": "ERC1155MissingApprovalForAll",
      "type": "error"
    },
    {
      "inputs": [
        {
          "internalType": "address",
          "name": "owner",
          "type": "address"
        }
      ],
      "name": "OwnableInvalidOwner",
      "type": "error"
    },
    {
      "inputs": [
        {
          "internalType": "address",
          "name": "account",
          "type": "address"
        }
      ],
      "name": "OwnableUnauthorizedAccount",
      "type": "error"
    },
    {
      "anonymous": false,
      "inputs": [
        {
          "indexed": true,
          "internalType": "address",
          "name": "account",
          "type": "address"
        },
        {
          "indexed": true,
          "internalType": "address",
          "name": "operator",
          "type": "address"
        },
        {
          "indexed": false,
          "internalType": "bool",
          "name": "approved",
          "type": "bool"
        }
      ],
      "name": "ApprovalForAll",
      "type": "event"
    },
    {
      "anonymous": false,
      "inputs": [
        {
          "indexed": true,
          "internalType": "uint256",
          "name": "gameId",
          "type": "uint256"
        },
        {
          "indexed": true,
          "internalType": "address",
          "name": "to",
          "type": "address"
        }
      ],
      "name": "Minted",
      "type": "event"
    },
    {
      "anonymous": false,
      "inputs": [
        {
          "indexed": true,
          "internalType": "address",
          "name": "previousOwner",
          "type": "address"
        },
        {
          "indexed": true,
          "internalType": "address",
          "name": "newOwner",
          "type": "address"
        }
      ],
      "name": "OwnershipTransferred",
      "type": "event"
    },
    {
      "anonymous": false,
      "inputs": [
        {
          "indexed": true,
          "internalType": "uint256",
          "name": "gameId",
          "type": "uint256"
        },
        {
          "indexed": false,
          "internalType": "uint256",
          "name": "price",
          "type": "uint256"
        },
        {
          "indexed": false,
          "internalType": "uint16",
          "name": "royaltyPercent",
          "type": "uint16"
        }
      ],
      "name": "RegisterGame",
      "type": "event"
    },
    {
      "anonymous": false,
      "inputs": [
        {
          "indexed": true,
          "internalType": "address",
          "name": "operator",
          "type": "address"
        },
        {
          "indexed": true,
          "internalType": "address",
          "name": "from",
          "type": "address"
        },
        {
          "indexed": true,
          "internalType": "address",
          "name": "to",
          "type": "address"
        },
        {
          "indexed": false,
          "internalType": "uint256[]",
          "name": "ids",
          "type": "uint256[]"
        },
        {
          "indexed": false,
          "internalType": "uint256[]",
          "name": "values",
          "type": "uint256[]"
        }
      ],
      "name": "TransferBatch",
      "type": "event"
    },
    {
      "anonymous": false,
      "inputs": [
        {
          "indexed": true,
          "internalType": "address",
          "name": "operator",
          "type": "address"
        },
        {
          "indexed": true,
          "internalType": "address",
          "name": "from",
          "type": "address"
        },
        {
          "indexed": true,
          "internalType": "address",
          "name": "to",
          "type": "address"
        },
        {
          "indexed": false,
          "internalType": "uint256",
          "name": "id",
          "type": "uint256"
        },
        {
          "indexed": false,
          "internalType": "uint256",
          "name": "value",
          "type": "uint256"
        }
      ],
      "name": "TransferSingle",
      "type": "event"
    },
    {
      "anonymous": false,
      "inputs": [
        {
          "indexed": false,
          "internalType": "string",
          "name": "value",
          "type": "string"
        },
        {
          "indexed": true,
          "internalType": "uint256",
          "name": "id",
          "type": "uint256"
        }
      ],
      "name": "URI",
      "type": "event"
    },
    {
      "stateMutability": "nonpayable",
      "type": "fallback"
    },
    {
      "inputs": [],
      "name": "badgeManager",
      "outputs": [
        {
          "internalType": "address",
          "name": "",
          "type": "address"
        }
      ],
      "stateMutability": "view",
      "type": "function"
    },
    {
      "inputs": [
        {
          "internalType": "address",
          "name": "account",
          "type": "address"
        },
        {
          "internalType": "uint256",
          "name": "id",
          "type": "uint256"
        }
      ],
      "name": "balanceOf",
      "outputs": [
        {
          "internalType": "uint256",
          "name": "",
          "type": "uint256"
        }
      ],
      "stateMutability": "view",
      "type": "function"
    },
    {
      "inputs": [
        {
          "internalType": "address[]",
          "name": "accounts",
          "type": "address[]"
        },
        {
          "internalType": "uint256[]",
          "name": "ids",
          "type": "uint256[]"
        }
      ],
      "name": "balanceOfBatch",
      "outputs": [
        {
          "internalType": "uint256[]",
          "name": "",
          "type": "uint256[]"
        }
      ],
      "stateMutability": "view",
      "type": "function"
    },
    {
      "inputs": [],
      "name": "contractURI",
      "outputs": [
        {
          "internalType": "string",
          "name": "",
          "type": "string"
        }
      ],
      "stateMutability": "pure",
      "type": "function"
    },
    {
      "inputs": [
        {
          "internalType": "uint256",
          "name": "",
          "type": "uint256"
        }
      ],
      "name": "games",
      "outputs": [
        {
          "internalType": "bool",
          "name": "",
          "type": "bool"
        }
      ],
      "stateMutability": "view",
      "type": "function"
    },
    {
      "inputs": [],
      "name": "getBalance",
      "outputs": [
        {
          "internalType": "uint256",
          "name": "",
          "type": "uint256"
        }
      ],
      "stateMutability": "view",
      "type": "function"
    },
    {
      "inputs": [],
      "name": "idCounter",
      "outputs": [
        {
          "internalType": "uint256",
          "name": "",
          "type": "uint256"
        }
      ],
      "stateMutability": "view",
      "type": "function"
    },
    {
      "inputs": [
        {
          "internalType": "address",
          "name": "account",
          "type": "address"
        },
        {
          "internalType": "address",
          "name": "operator",
          "type": "address"
        }
      ],
      "name": "isApprovedForAll",
      "outputs": [
        {
          "internalType": "bool",
          "name": "",
          "type": "bool"
        }
      ],
      "stateMutability": "view",
      "type": "function"
    },
    {
      "inputs": [],
      "name": "metadataURI",
      "outputs": [
        {
          "internalType": "string",
          "name": "",
          "type": "string"
        }
      ],
      "stateMutability": "view",
      "type": "function"
    },
    {
      "inputs": [
        {
          "internalType": "uint256",
          "name": "gameId",
          "type": "uint256"
        }
      ],
      "name": "mint",
      "outputs": [],
      "stateMutability": "payable",
      "type": "function"
    },
    {
      "inputs": [
        {
          "internalType": "address",
          "name": "to",
          "type": "address"
        },
        {
          "internalType": "uint256[]",
          "name": "ids",
          "type": "uint256[]"
        },
        {
          "internalType": "uint256[]",
          "name": "amounts",
          "type": "uint256[]"
        },
        {
          "internalType": "bytes",
          "name": "data",
          "type": "bytes"
        }
      ],
      "name": "mintBatch",
      "outputs": [],
      "stateMutability": "nonpayable",
      "type": "function"
    },
    {
      "inputs": [],
      "name": "owner",
      "outputs": [
        {
          "internalType": "address",
          "name": "",
          "type": "address"
        }
      ],
      "stateMutability": "view",
      "type": "function"
    },
    {
      "inputs": [
        {
          "internalType": "uint256",
          "name": "",
          "type": "uint256"
        }
      ],
      "name": "prices",
      "outputs": [
        {
          "internalType": "uint256",
          "name": "",
          "type": "uint256"
        }
      ],
      "stateMutability": "view",
      "type": "function"
    },
    {
      "inputs": [
        {
          "internalType": "uint256",
          "name": "price",
          "type": "uint256"
        },
        {
          "internalType": "uint16",
          "name": "royaltyPercent",
          "type": "uint16"
        }
      ],
      "name": "registerGame",
      "outputs": [
        {
          "internalType": "uint256",
          "name": "",
          "type": "uint256"
        }
      ],
      "stateMutability": "nonpayable",
      "type": "function"
    },
    {
      "inputs": [],
      "name": "renounceOwnership",
      "outputs": [],
      "stateMutability": "nonpayable",
      "type": "function"
    },
    {
      "inputs": [
        {
          "internalType": "uint256",
          "name": "gameId",
          "type": "uint256"
        },
        {
          "internalType": "uint256",
          "name": "_salePrice",
          "type": "uint256"
        }
      ],
      "name": "royaltyInfo",
      "outputs": [
        {
          "internalType": "address",
          "name": "receiver",
          "type": "address"
        },
        {
          "internalType": "uint256",
          "name": "royaltyAmount",
          "type": "uint256"
        }
      ],
      "stateMutability": "view",
      "type": "function"
    },
    {
      "inputs": [
        {
          "internalType": "address",
          "name": "from",
          "type": "address"
        },
        {
          "internalType": "address",
          "name": "to",
          "type": "address"
        },
        {
          "internalType": "uint256[]",
          "name": "ids",
          "type": "uint256[]"
        },
        {
          "internalType": "uint256[]",
          "name": "values",
          "type": "uint256[]"
        },
        {
          "internalType": "bytes",
          "name": "data",
          "type": "bytes"
        }
      ],
      "name": "safeBatchTransferFrom",
      "outputs": [],
      "stateMutability": "nonpayable",
      "type": "function"
    },
    {
      "inputs": [
        {
          "internalType": "address",
          "name": "from",
          "type": "address"
        },
        {
          "internalType": "address",
          "name": "to",
          "type": "address"
        },
        {
          "internalType": "uint256",
          "name": "id",
          "type": "uint256"
        },
        {
          "internalType": "uint256",
          "name": "value",
          "type": "uint256"
        },
        {
          "internalType": "bytes",
          "name": "data",
          "type": "bytes"
        }
      ],
      "name": "safeTransferFrom",
      "outputs": [],
      "stateMutability": "nonpayable",
      "type": "function"
    },
    {
      "inputs": [
        {
          "internalType": "address",
          "name": "operator",
          "type": "address"
        },
        {
          "internalType": "bool",
          "name": "approved",
          "type": "bool"
        }
      ],
      "name": "setApprovalForAll",
      "outputs": [],
      "stateMutability": "nonpayable",
      "type": "function"
    },
    {
      "inputs": [
        {
          "internalType": "address",
          "name": "_badgeManager",
          "type": "address"
        }
      ],
      "name": "setBadgeManager",
      "outputs": [],
      "stateMutability": "nonpayable",
      "type": "function"
    },
    {
      "inputs": [
        {
          "internalType": "string",
          "name": "_metadataURI",
          "type": "string"
        }
      ],
      "name": "setMetadataURI",
      "outputs": [],
      "stateMutability": "nonpayable",
      "type": "function"
    },
    {
      "inputs": [
        {
          "internalType": "bytes4",
          "name": "interfaceId",
          "type": "bytes4"
        }
      ],
      "name": "supportsInterface",
      "outputs": [
        {
          "internalType": "bool",
          "name": "",
          "type": "bool"
        }
      ],
      "stateMutability": "view",
      "type": "function"
    },
    {
      "inputs": [
        {
          "internalType": "address",
          "name": "newOwner",
          "type": "address"
        }
      ],
      "name": "transferOwnership",
      "outputs": [],
      "stateMutability": "nonpayable",
      "type": "function"
    },
    {
      "inputs": [
        {
          "internalType": "uint256",
          "name": "_tokenid",
          "type": "uint256"
        }
      ],
      "name": "uri",
      "outputs": [
        {
          "internalType": "string",
          "name": "",
          "type": "string"
        }
      ],
      "stateMutability": "view",
      "type": "function"
    },
    {
      "inputs": [],
      "name": "withdraw",
      "outputs": [],
      "stateMutability": "nonpayable",
      "type": "function"
    }
  ],
  "bytecode": "0x60806040523480156200001157600080fd5b5033604051806020016040528060008152506200003481620000ed60201b60201c565b50600073ffffffffffffffffffffffffffffffffffffffff168173ffffffffffffffffffffffffffffffffffffffff1603620000aa5760006040517f1e4fbdf7000000000000000000000000000000000000000000000000000000008152600401620000a191906200020d565b60405180910390fd5b620000bb816200010260201b60201c565b506040518060a001604052806063815260200162003dfa6063913960099081620000e69190620004a4565b506200058b565b8060029081620000fe9190620004a4565b5050565b6000600360009054906101000a900473ffffffffffffffffffffffffffffffffffffffff16905081600360006101000a81548173ffffffffffffffffffffffffffffffffffffffff021916908373ffffffffffffffffffffffffffffffffffffffff1602179055508173ffffffffffffffffffffffffffffffffffffffff168173ffffffffffffffffffffffffffffffffffffffff167f8be0079c531659141344cd1fd0a4f28419497f9722a3daafe3b4186f6b6457e060405160405180910390a35050565b600073ffffffffffffffffffffffffffffffffffffffff82169050919050565b6000620001f582620001c8565b9050919050565b6200020781620001e8565b82525050565b6000602082019050620002246000830184620001fc565b92915050565b600081519050919050565b7f4e487b7100000000000000000000000000000000000000000000000000000000600052604160045260246000fd5b7f4e487b7100000000000000000000000000000000000000000000000000000000600052602260045260246000fd5b60006002820490506001821680620002ac57607f821691505b602082108103620002c257620002c162000264565b5b50919050565b60008190508160005260206000209050919050565b60006020601f8301049050919050565b600082821b905092915050565b6000600883026200032c7fffffffffffffffffffffffffffffffffffffffffffffffffffffffffffffffff82620002ed565b620003388683620002ed565b95508019841693508086168417925050509392505050565b6000819050919050565b6000819050919050565b6000620003856200037f620003798462000350565b6200035a565b62000350565b9050919050565b6000819050919050565b620003a18362000364565b620003b9620003b0826200038c565b848454620002fa565b825550505050565b600090565b620003d0620003c1565b620003dd81848462000396565b505050565b5b818110156200040557620003f9600082620003c6565b600181019050620003e3565b5050565b601f82111562000454576200041e81620002c8565b6200042984620002dd565b8101602085101562000439578190505b620004516200044885620002dd565b830182620003e2565b50505b505050565b600082821c905092915050565b6000620004796000198460080262000459565b1980831691505092915050565b600062000494838362000466565b9150826002028217905092915050565b620004af826200022a565b67ffffffffffffffff811115620004cb57620004ca62000235565b5b620004d7825462000293565b620004e482828562000409565b600060209050601f8311600181146200051c576000841562000507578287015190505b62000513858262000486565b86555062000583565b601f1984166200052c86620002c8565b60005b8281101562000556578489015182556001820191506020850194506020810190506200052f565b8683101562000576578489015162000572601f89168262000466565b8355505b6001600288020188555050505b505050505050565b61385f806200059b6000396000f3fe6080604052600436106101695760003560e01c8063715018a6116100d1578063c88621281161008a578063e985e9c511610064578063e985e9c514610552578063eb08ab281461058f578063f242432a146105ba578063f2fde38b146105e35761016a565b8063c8862128146104c1578063e6a2e57c146104ea578063e8a3d485146105275761016a565b8063715018a6146103d4578063750521f5146103eb5780638da5cb5b14610414578063a0712d681461043f578063a22cb4651461045b578063bc31c1c1146104845761016a565b80631f7fdffa116101235780631f7fdffa146102c55780632a55205a146102ee5780632eb2c2d61461032c5780633ccfd60b146103555780634e1273f41461036c57806352bf358e146103a95761016a565b8062fdd58e1461017b57806301ffc9a7146101b857806303ee438c146101f55780630e89341c14610220578063117a5b901461025d57806312065fe01461029a5761016a565b5b34801561017657600080fd5b600080fd5b34801561018757600080fd5b506101a2600480360381019061019d9190612280565b61060c565b6040516101af91906122cf565b60405180910390f35b3480156101c457600080fd5b506101df60048036038101906101da9190612342565b610666565b6040516101ec919061238a565b60405180910390f35b34801561020157600080fd5b5061020a610748565b6040516102179190612435565b60405180910390f35b34801561022c57600080fd5b5061024760048036038101906102429190612457565b6107d6565b6040516102549190612435565b60405180910390f35b34801561026957600080fd5b50610284600480360381019061027f9190612457565b61080a565b604051610291919061238a565b60405180910390f35b3480156102a657600080fd5b506102af61082a565b6040516102bc91906122cf565b60405180910390f35b3480156102d157600080fd5b506102ec60048036038101906102e79190612681565b610832565b005b3480156102fa57600080fd5b506103156004803603810190610310919061273c565b610844565b60405161032392919061278b565b60405180910390f35b34801561033857600080fd5b50610353600480360381019061034e91906127b4565b6108a4565b005b34801561036157600080fd5b5061036a61094c565b005b34801561037857600080fd5b50610393600480360381019061038e9190612946565b610a0a565b6040516103a09190612a7c565b60405180910390f35b3480156103b557600080fd5b506103be610b19565b6040516103cb9190612a9e565b60405180910390f35b3480156103e057600080fd5b506103e9610b3f565b005b3480156103f757600080fd5b50610412600480360381019061040d9190612b5a565b610b53565b005b34801561042057600080fd5b50610429610b6e565b6040516104369190612a9e565b60405180910390f35b61045960048036038101906104549190612457565b610b98565b005b34801561046757600080fd5b50610482600480360381019061047d9190612bcf565b610cc2565b005b34801561049057600080fd5b506104ab60048036038101906104a69190612457565b610cd8565b6040516104b891906122cf565b60405180910390f35b3480156104cd57600080fd5b506104e860048036038101906104e39190612c0f565b610cf0565b005b3480156104f657600080fd5b50610511600480360381019061050c9190612c76565b610d34565b60405161051e91906122cf565b60405180910390f35b34801561053357600080fd5b5061053c610e15565b6040516105499190612435565b60405180910390f35b34801561055e57600080fd5b5061057960048036038101906105749190612cb6565b610e5a565b604051610586919061238a565b60405180910390f35b34801561059b57600080fd5b506105a4610eee565b6040516105b191906122cf565b60405180910390f35b3480156105c657600080fd5b506105e160048036038101906105dc9190612cf6565b610ef4565b005b3480156105ef57600080fd5b5061060a60048036038101906106059190612c0f565b610f9c565b005b600080600083815260200190815260200160002060008473ffffffffffffffffffffffffffffffffffffffff1673ffffffffffffffffffffffffffffffffffffffff16815260200190815260200160002054905092915050565b60007fd9b67a26000000000000000000000000000000000000000000000000000000007bffffffffffffffffffffffffffffffffffffffffffffffffffffffff1916827bffffffffffffffffffffffffffffffffffffffffffffffffffffffff1916148061073157507f0e89341c000000000000000000000000000000000000000000000000000000007bffffffffffffffffffffffffffffffffffffffffffffffffffffffff1916827bffffffffffffffffffffffffffffffffffffffffffffffffffffffff1916145b80610741575061074082611022565b5b9050919050565b6009805461075590612dbc565b80601f016020809104026020016040519081016040528092919081815260200182805461078190612dbc565b80156107ce5780601f106107a3576101008083540402835291602001916107ce565b820191906000526020600020905b8154815290600101906020018083116107b157829003601f168201915b505050505081565b606060096107e38361108c565b6040516020016107f4929190612f0d565b6040516020818303038152906040529050919050565b60076020528060005260406000206000915054906101000a900460ff1681565b600047905090565b61083e8484848461115a565b50505050565b60008061084f610b6e565b61271060646008600088815260200190815260200160002060009054906101000a900461ffff1661ffff16866108859190612f6b565b61088f9190612f6b565b6108999190612fdc565b915091509250929050565b60006108ae6111e0565b90508073ffffffffffffffffffffffffffffffffffffffff168673ffffffffffffffffffffffffffffffffffffffff16141580156108f357506108f18682610e5a565b155b156109375780866040517fe237d92200000000000000000000000000000000000000000000000000000000815260040161092e92919061300d565b60405180910390fd5b61094486868686866111e8565b505050505050565b6109546112e0565b60003373ffffffffffffffffffffffffffffffffffffffff1661097561082a565b60405161098190613067565b60006040518083038185875af1925050503d80600081146109be576040519150601f19603f3d011682016040523d82523d6000602084013e6109c3565b606091505b5050905080610a07576040517f08c379a00000000000000000000000000000000000000000000000000000000081526004016109fe906130c8565b60405180910390fd5b50565b60608151835114610a5657815183516040517f5b059991000000000000000000000000000000000000000000000000000000008152600401610a4d9291906130e8565b60405180910390fd5b6000835167ffffffffffffffff811115610a7357610a72612489565b5b604051908082528060200260200182016040528015610aa15781602001602082028036833780820191505090505b50905060005b8451811015610b0e57610ade610ac6828761136790919063ffffffff16565b610ad9838761137b90919063ffffffff16565b61060c565b828281518110610af157610af0613111565b5b60200260200101818152505080610b0790613140565b9050610aa7565b508091505092915050565b600460009054906101000a900473ffffffffffffffffffffffffffffffffffffffff1681565b610b476112e0565b610b51600061138f565b565b610b5b6112e0565b8060099081610b6a919061331f565b5050565b6000600360009054906101000a900473ffffffffffffffffffffffffffffffffffffffff16905090565b6007600082815260200190815260200160002060009054906101000a900460ff16610bf8576040517f08c379a0000000000000000000000000000000000000000000000000000000008152600401610bef9061343d565b60405180910390fd5b60006006600083815260200190815260200160002054905080341015610c53576040517f08c379a0000000000000000000000000000000000000000000000000000000008152600401610c4a906134a9565b60405180910390fd5b610c6f3383600160405180602001604052806000815250611455565b3373ffffffffffffffffffffffffffffffffffffffff16827fb9203d657e9c0ec8274c818292ab0f58b04e1970050716891770eb1bab5d655e60405160405180910390a3610cbe3360016114ee565b5050565b610cd4610ccd6111e0565b8383611612565b5050565b60066020528060005260406000206000915090505481565b80600460006101000a81548173ffffffffffffffffffffffffffffffffffffffff021916908373ffffffffffffffffffffffffffffffffffffffff16021790555050565b6000610d3e6112e0565b60056000815480929190610d5190613140565b9190505550600160076000600554815260200190815260200160002060006101000a81548160ff02191690831515021790555082600660006005548152602001908152602001600020819055508160086000600554815260200190815260200160002060006101000a81548161ffff021916908361ffff1602179055506005547f3f5161391870ba3f009c08b639673b3a4e5270d142f6431b7f15385d002e4a008484604051610e029291906134d8565b60405180910390a2600554905092915050565b606060006040518060a00160405280606781526020016137c360679139905080604051602001610e459190613527565b60405160208183030381529060405291505090565b6000600160008473ffffffffffffffffffffffffffffffffffffffff1673ffffffffffffffffffffffffffffffffffffffff16815260200190815260200160002060008373ffffffffffffffffffffffffffffffffffffffff1673ffffffffffffffffffffffffffffffffffffffff16815260200190815260200160002060009054906101000a900460ff16905092915050565b60055481565b6000610efe6111e0565b90508073ffffffffffffffffffffffffffffffffffffffff168673ffffffffffffffffffffffffffffffffffffffff1614158015610f435750610f418682610e5a565b155b15610f875780866040517fe237d922000000000000000000000000000000000000000000000000000000008152600401610f7e92919061300d565b60405180910390fd5b610f948686868686611782565b505050505050565b610fa46112e0565b600073ffffffffffffffffffffffffffffffffffffffff168173ffffffffffffffffffffffffffffffffffffffff16036110165760006040517f1e4fbdf700000000000000000000000000000000000000000000000000000000815260040161100d9190612a9e565b60405180910390fd5b61101f8161138f565b50565b60007f01ffc9a7000000000000000000000000000000000000000000000000000000007bffffffffffffffffffffffffffffffffffffffffffffffffffffffff1916827bffffffffffffffffffffffffffffffffffffffffffffffffffffffff1916149050919050565b60606000600161109b8461188d565b01905060008167ffffffffffffffff8111156110ba576110b9612489565b5b6040519080825280601f01601f1916602001820160405280156110ec5781602001600182028036833780820191505090505b509050600082602001820190505b60011561114f578080600190039150507f3031323334353637383961626364656600000000000000000000000000000000600a86061a8153600a858161114357611142612fad565b5b049450600085036110fa575b819350505050919050565b600073ffffffffffffffffffffffffffffffffffffffff168473ffffffffffffffffffffffffffffffffffffffff16036111cc5760006040517f57f447ce0000000000000000000000000000000000000000000000000000000081526004016111c39190612a9e565b60405180910390fd5b6111da6000858585856119e0565b50505050565b600033905090565b600073ffffffffffffffffffffffffffffffffffffffff168473ffffffffffffffffffffffffffffffffffffffff160361125a5760006040517f57f447ce0000000000000000000000000000000000000000000000000000000081526004016112519190612a9e565b60405180910390fd5b600073ffffffffffffffffffffffffffffffffffffffff168573ffffffffffffffffffffffffffffffffffffffff16036112cc5760006040517f01a835140000000000000000000000000000000000000000000000000000000081526004016112c39190612a9e565b60405180910390fd5b6112d985858585856119e0565b5050505050565b6112e86111e0565b73ffffffffffffffffffffffffffffffffffffffff16611306610b6e565b73ffffffffffffffffffffffffffffffffffffffff1614611365576113296111e0565b6040517f118cdaa700000000000000000000000000000000000000000000000000000000815260040161135c9190612a9e565b60405180910390fd5b565b600060208202602084010151905092915050565b600060208202602084010151905092915050565b6000600360009054906101000a900473ffffffffffffffffffffffffffffffffffffffff16905081600360006101000a81548173ffffffffffffffffffffffffffffffffffffffff021916908373ffffffffffffffffffffffffffffffffffffffff1602179055508173ffffffffffffffffffffffffffffffffffffffff168173ffffffffffffffffffffffffffffffffffffffff167f8be0079c531659141344cd1fd0a4f28419497f9722a3daafe3b4186f6b6457e060405160405180910390a35050565b600073ffffffffffffffffffffffffffffffffffffffff168473ffffffffffffffffffffffffffffffffffffffff16036114c75760006040517f57f447ce0000000000000000000000000000000000000000000000000000000081526004016114be9190612a9e565b60405180910390fd5b6000806114d48585611a92565b915091506114e66000878484876119e0565b505050505050565b600073ffffffffffffffffffffffffffffffffffffffff16600460009054906101000a900473ffffffffffffffffffffffffffffffffffffffff1673ffffffffffffffffffffffffffffffffffffffff160361157f576040517f08c379a000000000000000000000000000000000000000000000000000000000815260040161157690613599565b60405180910390fd5b600460009054906101000a900473ffffffffffffffffffffffffffffffffffffffff1673ffffffffffffffffffffffffffffffffffffffff1663be76048883836040518363ffffffff1660e01b81526004016115dc92919061278b565b600060405180830381600087803b1580156115f657600080fd5b505af115801561160a573d6000803e3d6000fd5b505050505050565b600073ffffffffffffffffffffffffffffffffffffffff168273ffffffffffffffffffffffffffffffffffffffff16036116845760006040517fced3e10000000000000000000000000000000000000000000000000000000000815260040161167b9190612a9e565b60405180910390fd5b80600160008573ffffffffffffffffffffffffffffffffffffffff1673ffffffffffffffffffffffffffffffffffffffff16815260200190815260200160002060008473ffffffffffffffffffffffffffffffffffffffff1673ffffffffffffffffffffffffffffffffffffffff16815260200190815260200160002060006101000a81548160ff0219169083151502179055508173ffffffffffffffffffffffffffffffffffffffff168373ffffffffffffffffffffffffffffffffffffffff167f17307eab39ab6107e8899845ad3d59bd9653f200f220920489ca2b5937696c3183604051611775919061238a565b60405180910390a3505050565b600073ffffffffffffffffffffffffffffffffffffffff168473ffffffffffffffffffffffffffffffffffffffff16036117f45760006040517f57f447ce0000000000000000000000000000000000000000000000000000000081526004016117eb9190612a9e565b60405180910390fd5b600073ffffffffffffffffffffffffffffffffffffffff168573ffffffffffffffffffffffffffffffffffffffff16036118665760006040517f01a8351400000000000000000000000000000000000000000000000000000000815260040161185d9190612a9e565b60405180910390fd5b6000806118738585611a92565b9150915061188487878484876119e0565b50505050505050565b600080600090507a184f03e93ff9f4daa797ed6e38ed64bf6a1f01000000000000000083106118eb577a184f03e93ff9f4daa797ed6e38ed64bf6a1f01000000000000000083816118e1576118e0612fad565b5b0492506040810190505b6d04ee2d6d415b85acef81000000008310611928576d04ee2d6d415b85acef8100000000838161191e5761191d612fad565b5b0492506020810190505b662386f26fc10000831061195757662386f26fc10000838161194d5761194c612fad565b5b0492506010810190505b6305f5e1008310611980576305f5e100838161197657611975612fad565b5b0492506008810190505b61271083106119a557612710838161199b5761199a612fad565b5b0492506004810190505b606483106119c857606483816119be576119bd612fad565b5b0492506002810190505b600a83106119d7576001810190505b80915050919050565b6119ec85858585611ac2565b600073ffffffffffffffffffffffffffffffffffffffff168473ffffffffffffffffffffffffffffffffffffffff1614611a8b576000611a2a6111e0565b90506001845103611a7a576000611a4b60008661137b90919063ffffffff16565b90506000611a6360008661137b90919063ffffffff16565b9050611a73838989858589611e70565b5050611a89565b611a88818787878787612024565b5b505b5050505050565b60608060405191506001825283602083015260408201905060018152826020820152604081016040529250929050565b8051825114611b0c57815181516040517f5b059991000000000000000000000000000000000000000000000000000000008152600401611b039291906130e8565b60405180910390fd5b6000611b166111e0565b905060005b8351811015611d2b576000611b39828661137b90919063ffffffff16565b90506000611b50838661137b90919063ffffffff16565b9050600073ffffffffffffffffffffffffffffffffffffffff168873ffffffffffffffffffffffffffffffffffffffff1614611c7d57600080600084815260200190815260200160002060008a73ffffffffffffffffffffffffffffffffffffffff1673ffffffffffffffffffffffffffffffffffffffff16815260200190815260200160002054905081811015611c2557888183856040517f03dee4c5000000000000000000000000000000000000000000000000000000008152600401611c1c94939291906135b9565b60405180910390fd5b81810360008085815260200190815260200160002060008b73ffffffffffffffffffffffffffffffffffffffff1673ffffffffffffffffffffffffffffffffffffffff16815260200190815260200160002081905550505b600073ffffffffffffffffffffffffffffffffffffffff168773ffffffffffffffffffffffffffffffffffffffff1614611d18578060008084815260200190815260200160002060008973ffffffffffffffffffffffffffffffffffffffff1673ffffffffffffffffffffffffffffffffffffffff1681526020019081526020016000206000828254611d1091906135fe565b925050819055505b505080611d2490613140565b9050611b1b565b506001835103611dea576000611d4b60008561137b90919063ffffffff16565b90506000611d6360008561137b90919063ffffffff16565b90508573ffffffffffffffffffffffffffffffffffffffff168773ffffffffffffffffffffffffffffffffffffffff168473ffffffffffffffffffffffffffffffffffffffff167fc3d58168c5ae7397731d063d5bbf3d657854427343f4c083240f7aacaa2d0f628585604051611ddb9291906130e8565b60405180910390a45050611e69565b8373ffffffffffffffffffffffffffffffffffffffff168573ffffffffffffffffffffffffffffffffffffffff168273ffffffffffffffffffffffffffffffffffffffff167f4a39dc06d4c0dbc64b70af90fd698a233a518aa5d07e595d983b8c0526c8f7fb8686604051611e60929190613632565b60405180910390a45b5050505050565b60008473ffffffffffffffffffffffffffffffffffffffff163b111561201c578373ffffffffffffffffffffffffffffffffffffffff1663f23a6e6187878686866040518663ffffffff1660e01b8152600401611ed19594939291906136be565b6020604051808303816000875af1925050508015611f0d57506040513d601f19601f82011682018060405250810190611f0a919061372d565b60015b611f91573d8060008114611f3d576040519150601f19603f3d011682016040523d82523d6000602084013e611f42565b606091505b506000815103611f8957846040517f57f447ce000000000000000000000000000000000000000000000000000000008152600401611f809190612a9e565b60405180910390fd5b805181602001fd5b63f23a6e6160e01b7bffffffffffffffffffffffffffffffffffffffffffffffffffffffff1916817bffffffffffffffffffffffffffffffffffffffffffffffffffffffff19161461201a57846040517f57f447ce0000000000000000000000000000000000000000000000000000000081526004016120119190612a9e565b60405180910390fd5b505b505050505050565b60008473ffffffffffffffffffffffffffffffffffffffff163b11156121d0578373ffffffffffffffffffffffffffffffffffffffff1663bc197c8187878686866040518663ffffffff1660e01b815260040161208595949392919061375a565b6020604051808303816000875af19250505080156120c157506040513d601f19601f820116820180604052508101906120be919061372d565b60015b612145573d80600081146120f1576040519150601f19603f3d011682016040523d82523d6000602084013e6120f6565b606091505b50600081510361213d57846040517f57f447ce0000000000000000000000000000000000000000000000000000000081526004016121349190612a9e565b60405180910390fd5b805181602001fd5b63bc197c8160e01b7bffffffffffffffffffffffffffffffffffffffffffffffffffffffff1916817bffffffffffffffffffffffffffffffffffffffffffffffffffffffff1916146121ce57846040517f57f447ce0000000000000000000000000000000000000000000000000000000081526004016121c59190612a9e565b60405180910390fd5b505b505050505050565b6000604051905090565b600080fd5b600080fd5b600073ffffffffffffffffffffffffffffffffffffffff82169050919050565b6000612217826121ec565b9050919050565b6122278161220c565b811461223257600080fd5b50565b6000813590506122448161221e565b92915050565b6000819050919050565b61225d8161224a565b811461226857600080fd5b50565b60008135905061227a81612254565b92915050565b60008060408385031215612297576122966121e2565b5b60006122a585828601612235565b92505060206122b68582860161226b565b9150509250929050565b6122c98161224a565b82525050565b60006020820190506122e460008301846122c0565b92915050565b60007fffffffff0000000000000000000000000000000000000000000000000000000082169050919050565b61231f816122ea565b811461232a57600080fd5b50565b60008135905061233c81612316565b92915050565b600060208284031215612358576123576121e2565b5b60006123668482850161232d565b91505092915050565b60008115159050919050565b6123848161236f565b82525050565b600060208201905061239f600083018461237b565b92915050565b600081519050919050565b600082825260208201905092915050565b60005b838110156123df5780820151818401526020810190506123c4565b60008484015250505050565b6000601f19601f8301169050919050565b6000612407826123a5565b61241181856123b0565b93506124218185602086016123c1565b61242a816123eb565b840191505092915050565b6000602082019050818103600083015261244f81846123fc565b905092915050565b60006020828403121561246d5761246c6121e2565b5b600061247b8482850161226b565b91505092915050565b600080fd5b7f4e487b7100000000000000000000000000000000000000000000000000000000600052604160045260246000fd5b6124c1826123eb565b810181811067ffffffffffffffff821117156124e0576124df612489565b5b80604052505050565b60006124f36121d8565b90506124ff82826124b8565b919050565b600067ffffffffffffffff82111561251f5761251e612489565b5b602082029050602081019050919050565b600080fd5b600061254861254384612504565b6124e9565b9050808382526020820190506020840283018581111561256b5761256a612530565b5b835b818110156125945780612580888261226b565b84526020840193505060208101905061256d565b5050509392505050565b600082601f8301126125b3576125b2612484565b5b81356125c3848260208601612535565b91505092915050565b600080fd5b600067ffffffffffffffff8211156125ec576125eb612489565b5b6125f5826123eb565b9050602081019050919050565b82818337600083830152505050565b600061262461261f846125d1565b6124e9565b9050828152602081018484840111156126405761263f6125cc565b5b61264b848285612602565b509392505050565b600082601f83011261266857612667612484565b5b8135612678848260208601612611565b91505092915050565b6000806000806080858703121561269b5761269a6121e2565b5b60006126a987828801612235565b945050602085013567ffffffffffffffff8111156126ca576126c96121e7565b5b6126d68782880161259e565b935050604085013567ffffffffffffffff8111156126f7576126f66121e7565b5b6127038782880161259e565b925050606085013567ffffffffffffffff811115612724576127236121e7565b5b61273087828801612653565b91505092959194509250565b60008060408385031215612753576127526121e2565b5b60006127618582860161226b565b92505060206127728582860161226b565b9150509250929050565b6127858161220c565b82525050565b60006040820190506127a0600083018561277c565b6127ad60208301846122c0565b9392505050565b600080600080600060a086880312156127d0576127cf6121e2565b5b60006127de88828901612235565b95505060206127ef88828901612235565b945050604086013567ffffffffffffffff8111156128105761280f6121e7565b5b61281c8882890161259e565b935050606086013567ffffffffffffffff81111561283d5761283c6121e7565b5b6128498882890161259e565b925050608086013567ffffffffffffffff81111561286a576128696121e7565b5b61287688828901612653565b9150509295509295909350565b600067ffffffffffffffff82111561289e5761289d612489565b5b602082029050602081019050919050565b60006128c26128bd84612883565b6124e9565b905080838252602082019050602084028301858111156128e5576128e4612530565b5b835b8181101561290e57806128fa8882612235565b8452602084019350506020810190506128e7565b5050509392505050565b600082601f83011261292d5761292c612484565b5b813561293d8482602086016128af565b91505092915050565b6000806040838503121561295d5761295c6121e2565b5b600083013567ffffffffffffffff81111561297b5761297a6121e7565b5b61298785828601612918565b925050602083013567ffffffffffffffff8111156129a8576129a76121e7565b5b6129b48582860161259e565b9150509250929050565b600081519050919050565b600082825260208201905092915050565b6000819050602082019050919050565b6129f38161224a565b82525050565b6000612a0583836129ea565b60208301905092915050565b6000602082019050919050565b6000612a29826129be565b612a3381856129c9565b9350612a3e836129da565b8060005b83811015612a6f578151612a5688826129f9565b9750612a6183612a11565b925050600181019050612a42565b5085935050505092915050565b60006020820190508181036000830152612a968184612a1e565b905092915050565b6000602082019050612ab3600083018461277c565b92915050565b600067ffffffffffffffff821115612ad457612ad3612489565b5b612add826123eb565b9050602081019050919050565b6000612afd612af884612ab9565b6124e9565b905082815260208101848484011115612b1957612b186125cc565b5b612b24848285612602565b509392505050565b600082601f830112612b4157612b40612484565b5b8135612b51848260208601612aea565b91505092915050565b600060208284031215612b7057612b6f6121e2565b5b600082013567ffffffffffffffff811115612b8e57612b8d6121e7565b5b612b9a84828501612b2c565b91505092915050565b612bac8161236f565b8114612bb757600080fd5b50565b600081359050612bc981612ba3565b92915050565b60008060408385031215612be657612be56121e2565b5b6000612bf485828601612235565b9250506020612c0585828601612bba565b9150509250929050565b600060208284031215612c2557612c246121e2565b5b6000612c3384828501612235565b91505092915050565b600061ffff82169050919050565b612c5381612c3c565b8114612c5e57600080fd5b50565b600081359050612c7081612c4a565b92915050565b60008060408385031215612c8d57612c8c6121e2565b5b6000612c9b8582860161226b565b9250506020612cac85828601612c61565b9150509250929050565b60008060408385031215612ccd57612ccc6121e2565b5b6000612cdb85828601612235565b9250506020612cec85828601612235565b9150509250929050565b600080600080600060a08688031215612d1257612d116121e2565b5b6000612d2088828901612235565b9550506020612d3188828901612235565b9450506040612d428882890161226b565b9350506060612d538882890161226b565b925050608086013567ffffffffffffffff811115612d7457612d736121e7565b5b612d8088828901612653565b9150509295509295909350565b7f4e487b7100000000000000000000000000000000000000000000000000000000600052602260045260246000fd5b60006002820490506001821680612dd457607f821691505b602082108103612de757612de6612d8d565b5b50919050565b600081905092915050565b60008190508160005260206000209050919050565b60008154612e1a81612dbc565b612e248186612ded565b94506001821660008114612e3f5760018114612e5457612e87565b60ff1983168652811515820286019350612e87565b612e5d85612df8565b60005b83811015612e7f57815481890152600182019150602081019050612e60565b838801955050505b50505092915050565b6000612e9b826123a5565b612ea58185612ded565b9350612eb58185602086016123c1565b80840191505092915050565b7f2e6a736f6e000000000000000000000000000000000000000000000000000000600082015250565b6000612ef7600583612ded565b9150612f0282612ec1565b600582019050919050565b6000612f198285612e0d565b9150612f258284612e90565b9150612f3082612eea565b91508190509392505050565b7f4e487b7100000000000000000000000000000000000000000000000000000000600052601160045260246000fd5b6000612f768261224a565b9150612f818361224a565b9250828202612f8f8161224a565b91508282048414831517612fa657612fa5612f3c565b5b5092915050565b7f4e487b7100000000000000000000000000000000000000000000000000000000600052601260045260246000fd5b6000612fe78261224a565b9150612ff28361224a565b92508261300257613001612fad565b5b828204905092915050565b6000604082019050613022600083018561277c565b61302f602083018461277c565b9392505050565b600081905092915050565b50565b6000613051600083613036565b915061305c82613041565b600082019050919050565b600061307282613044565b9150819050919050565b7f4661696c656420746f2077697468647261770000000000000000000000000000600082015250565b60006130b26012836123b0565b91506130bd8261307c565b602082019050919050565b600060208201905081810360008301526130e1816130a5565b9050919050565b60006040820190506130fd60008301856122c0565b61310a60208301846122c0565b9392505050565b7f4e487b7100000000000000000000000000000000000000000000000000000000600052603260045260246000fd5b600061314b8261224a565b91507fffffffffffffffffffffffffffffffffffffffffffffffffffffffffffffffff820361317d5761317c612f3c565b5b600182019050919050565b60006020601f8301049050919050565b600082821b905092915050565b6000600883026131d57fffffffffffffffffffffffffffffffffffffffffffffffffffffffffffffffff82613198565b6131df8683613198565b95508019841693508086168417925050509392505050565b6000819050919050565b600061321c6132176132128461224a565b6131f7565b61224a565b9050919050565b6000819050919050565b61323683613201565b61324a61324282613223565b8484546131a5565b825550505050565b600090565b61325f613252565b61326a81848461322d565b505050565b5b8181101561328e57613283600082613257565b600181019050613270565b5050565b601f8211156132d3576132a481612df8565b6132ad84613188565b810160208510156132bc578190505b6132d06132c885613188565b83018261326f565b50505b505050565b600082821c905092915050565b60006132f6600019846008026132d8565b1980831691505092915050565b600061330f83836132e5565b9150826002028217905092915050565b613328826123a5565b67ffffffffffffffff81111561334157613340612489565b5b61334b8254612dbc565b613356828285613292565b600060209050601f8311600181146133895760008415613377578287015190505b6133818582613303565b8655506133e9565b601f19841661339786612df8565b60005b828110156133bf5784890151825560018201915060208501945060208101905061339a565b868310156133dc57848901516133d8601f8916826132e5565b8355505b6001600288020188555050505b505050505050565b7f496e76616c69642067616d652069640000000000000000000000000000000000600082015250565b6000613427600f836123b0565b9150613432826133f1565b602082019050919050565b600060208201905081810360008301526134568161341a565b9050919050565b7f496e76616c696420707269636500000000000000000000000000000000000000600082015250565b6000613493600d836123b0565b915061349e8261345d565b602082019050919050565b600060208201905081810360008301526134c281613486565b9050919050565b6134d281612c3c565b82525050565b60006040820190506134ed60008301856122c0565b6134fa60208301846134c9565b9392505050565b7f646174613a6170706c69636174696f6e2f6a736f6e3b757466382c0000000000815250565b600061353282613501565b601b820191506135428284612e90565b915081905092915050565b7f42616467654d616e61676572206e6f7420736574000000000000000000000000600082015250565b60006135836014836123b0565b915061358e8261354d565b602082019050919050565b600060208201905081810360008301526135b281613576565b9050919050565b60006080820190506135ce600083018761277c565b6135db60208301866122c0565b6135e860408301856122c0565b6135f560608301846122c0565b95945050505050565b60006136098261224a565b91506136148361224a565b925082820190508082111561362c5761362b612f3c565b5b92915050565b6000604082019050818103600083015261364c8185612a1e565b905081810360208301526136608184612a1e565b90509392505050565b600081519050919050565b600082825260208201905092915050565b600061369082613669565b61369a8185613674565b93506136aa8185602086016123c1565b6136b3816123eb565b840191505092915050565b600060a0820190506136d3600083018861277c565b6136e0602083018761277c565b6136ed60408301866122c0565b6136fa60608301856122c0565b818103608083015261370c8184613685565b90509695505050505050565b60008151905061372781612316565b92915050565b600060208284031215613743576137426121e2565b5b600061375184828501613718565b91505092915050565b600060a08201905061376f600083018861277c565b61377c602083018761277c565b818103604083015261378e8186612a1e565b905081810360608301526137a28185612a1e565b905081810360808301526137b68184613685565b9050969550505050505056fe7b226e616d65223a2022446547616d657320636f6c6c656374696f6e222c226465736372697074696f6e223a224f776e20796f75722067616d65732e20506c617920616e642073656c6c20617320796f7520776973682077697468206e6f206c696d69742e227da2646970667358221220048f09fe038da4e5456d7f62dad97211e2b9e9d04380705cef6edb4a7f36c5ab64736f6c6343000814003368747470733a2f2f736361726c65742d6c6174652d747572746c652d3637342e6d7970696e6174612e636c6f75642f697066732f516d5271394a6b54516a6e396a7a566d38756e3355517755714d6f36553138685a514b784c4a737a566e756675512f",
  "linkReferences": {},
  "deployedLinkReferences": {}
}