{
  "_format": "hh-sol-artifact-1",
  "contractName": "GameComments",
  "sourceName": "contracts/GameComments.sol",
  "abi": [
    {
      "inputs": [],
      "stateMutability": "nonpayable",
      "type": "constructor"
    },
    {
      "inputs": [
        {
          "internalType": "address",
          "name": "sender",
          "type": "address"
        },
        {
          "internalType": "uint256",
          "name": "balance",
          "type": "uint256"
        },
        {
          "internalType": "uint256",
          "name": "needed",
          "type": "uint256"
        },
        {
          "internalType": "uint256",
          "name": "tokenId",
          "type": "uint256"
        }
      ],
      "name": "ERC1155InsufficientBalance",
      "type": "error"
    },
    {
      "inputs": [
        {
          "internalType": "address",
          "name": "approver",
          "type": "address"
        }
      ],
      "name": "ERC1155InvalidApprover",
      "type": "error"
    },
    {
      "inputs": [
        {
          "internalType": "uint256",
          "name": "idsLength",
          "type": "uint256"
        },
        {
          "internalType": "uint256",
          "name": "valuesLength",
          "type": "uint256"
        }
      ],
      "name": "ERC1155InvalidArrayLength",
      "type": "error"
    },
    {
      "inputs": [
        {
          "internalType": "address",
          "name": "operator",
          "type": "address"
        }
      ],
      "name": "ERC1155InvalidOperator",
      "type": "error"
    },
    {
      "inputs": [
        {
          "internalType": "address",
          "name": "receiver",
          "type": "address"
        }
      ],
      "name": "ERC1155InvalidReceiver",
      "type": "error"
    },
    {
      "inputs": [
        {
          "internalType": "address",
          "name": "sender",
          "type": "address"
        }
      ],
      "name": "ERC1155InvalidSender",
      "type": "error"
    },
    {
      "inputs": [
        {
          "internalType": "address",
          "name": "operator",
          "type": "address"
        },
        {
          "internalType": "address",
          "name": "owner",
          "type": "address"
        }
      ],
      "name": "ERC1155MissingApprovalForAll",
      "type": "error"
    },
    {
      "inputs": [
        {
          "internalType": "address",
          "name": "owner",
          "type": "address"
        }
      ],
      "name": "OwnableInvalidOwner",
      "type": "error"
    },
    {
      "inputs": [
        {
          "internalType": "address",
          "name": "account",
          "type": "address"
        }
      ],
      "name": "OwnableUnauthorizedAccount",
      "type": "error"
    },
    {
      "anonymous": false,
      "inputs": [
        {
          "indexed": true,
          "internalType": "address",
          "name": "account",
          "type": "address"
        },
        {
          "indexed": true,
          "internalType": "address",
          "name": "operator",
          "type": "address"
        },
        {
          "indexed": false,
          "internalType": "bool",
          "name": "approved",
          "type": "bool"
        }
      ],
      "name": "ApprovalForAll",
      "type": "event"
    },
    {
      "anonymous": false,
      "inputs": [
        {
          "indexed": true,
          "internalType": "address",
          "name": "author",
          "type": "address"
        },
        {
          "indexed": true,
          "internalType": "uint256",
          "name": "commentId",
          "type": "uint256"
        }
      ],
      "name": "CommentAdded",
      "type": "event"
    },
    {
      "anonymous": false,
      "inputs": [
        {
          "indexed": true,
          "internalType": "address",
          "name": "previousOwner",
          "type": "address"
        },
        {
          "indexed": true,
          "internalType": "address",
          "name": "newOwner",
          "type": "address"
        }
      ],
      "name": "OwnershipTransferred",
      "type": "event"
    },
    {
      "anonymous": false,
      "inputs": [
        {
          "indexed": true,
          "internalType": "address",
          "name": "operator",
          "type": "address"
        },
        {
          "indexed": true,
          "internalType": "address",
          "name": "from",
          "type": "address"
        },
        {
          "indexed": true,
          "internalType": "address",
          "name": "to",
          "type": "address"
        },
        {
          "indexed": false,
          "internalType": "uint256[]",
          "name": "ids",
          "type": "uint256[]"
        },
        {
          "indexed": false,
          "internalType": "uint256[]",
          "name": "values",
          "type": "uint256[]"
        }
      ],
      "name": "TransferBatch",
      "type": "event"
    },
    {
      "anonymous": false,
      "inputs": [
        {
          "indexed": true,
          "internalType": "address",
          "name": "operator",
          "type": "address"
        },
        {
          "indexed": true,
          "internalType": "address",
          "name": "from",
          "type": "address"
        },
        {
          "indexed": true,
          "internalType": "address",
          "name": "to",
          "type": "address"
        },
        {
          "indexed": false,
          "internalType": "uint256",
          "name": "id",
          "type": "uint256"
        },
        {
          "indexed": false,
          "internalType": "uint256",
          "name": "value",
          "type": "uint256"
        }
      ],
      "name": "TransferSingle",
      "type": "event"
    },
    {
      "anonymous": false,
      "inputs": [
        {
          "indexed": false,
          "internalType": "string",
          "name": "value",
          "type": "string"
        },
        {
          "indexed": true,
          "internalType": "uint256",
          "name": "id",
          "type": "uint256"
        }
      ],
      "name": "URI",
      "type": "event"
    },
    {
      "inputs": [
        {
          "internalType": "uint256",
          "name": "_gameId",
          "type": "uint256"
        },
        {
          "internalType": "string",
          "name": "_content",
          "type": "string"
        },
        {
          "internalType": "uint256",
          "name": "_rating",
          "type": "uint256"
        }
      ],
      "name": "addComment",
      "outputs": [
        {
          "internalType": "uint256",
          "name": "",
          "type": "uint256"
        }
      ],
      "stateMutability": "nonpayable",
      "type": "function"
    },
    {
      "inputs": [],
      "name": "badgeManager",
      "outputs": [
        {
          "internalType": "address",
          "name": "",
          "type": "address"
        }
      ],
      "stateMutability": "view",
      "type": "function"
    },
    {
      "inputs": [
        {
          "internalType": "address",
          "name": "account",
          "type": "address"
        },
        {
          "internalType": "uint256",
          "name": "id",
          "type": "uint256"
        }
      ],
      "name": "balanceOf",
      "outputs": [
        {
          "internalType": "uint256",
          "name": "",
          "type": "uint256"
        }
      ],
      "stateMutability": "view",
      "type": "function"
    },
    {
      "inputs": [
        {
          "internalType": "address[]",
          "name": "accounts",
          "type": "address[]"
        },
        {
          "internalType": "uint256[]",
          "name": "ids",
          "type": "uint256[]"
        }
      ],
      "name": "balanceOfBatch",
      "outputs": [
        {
          "internalType": "uint256[]",
          "name": "",
          "type": "uint256[]"
        }
      ],
      "stateMutability": "view",
      "type": "function"
    },
    {
      "inputs": [
        {
          "internalType": "uint256",
          "name": "",
          "type": "uint256"
        }
      ],
      "name": "comments",
      "outputs": [
        {
          "internalType": "uint256",
          "name": "id",
          "type": "uint256"
        },
        {
          "internalType": "uint256",
          "name": "gameId",
          "type": "uint256"
        },
        {
          "internalType": "uint256",
          "name": "rating",
          "type": "uint256"
        },
        {
          "internalType": "address",
          "name": "author",
          "type": "address"
        },
        {
          "internalType": "string",
          "name": "content",
          "type": "string"
        },
        {
          "internalType": "uint256",
          "name": "timestamp",
          "type": "uint256"
        }
      ],
      "stateMutability": "view",
      "type": "function"
    },
    {
      "inputs": [],
      "name": "getAllComments",
      "outputs": [
        {
          "components": [
            {
              "internalType": "uint256",
              "name": "id",
              "type": "uint256"
            },
            {
              "internalType": "uint256",
              "name": "gameId",
              "type": "uint256"
            },
            {
              "internalType": "uint256",
              "name": "rating",
              "type": "uint256"
            },
            {
              "internalType": "address",
              "name": "author",
              "type": "address"
            },
            {
              "internalType": "string",
              "name": "content",
              "type": "string"
            },
            {
              "internalType": "uint256",
              "name": "timestamp",
              "type": "uint256"
            }
          ],
          "internalType": "struct GameComments.Comment[]",
          "name": "",
          "type": "tuple[]"
        }
      ],
      "stateMutability": "view",
      "type": "function"
    },
    {
      "inputs": [
        {
          "internalType": "uint256",
          "name": "_gameId",
          "type": "uint256"
        }
      ],
      "name": "getAllGamesComments",
      "outputs": [
        {
          "components": [
            {
              "internalType": "uint256",
              "name": "id",
              "type": "uint256"
            },
            {
              "internalType": "uint256",
              "name": "gameId",
              "type": "uint256"
            },
            {
              "internalType": "uint256",
              "name": "rating",
              "type": "uint256"
            },
            {
              "internalType": "address",
              "name": "author",
              "type": "address"
            },
            {
              "internalType": "string",
              "name": "content",
              "type": "string"
            },
            {
              "internalType": "uint256",
              "name": "timestamp",
              "type": "uint256"
            }
          ],
          "internalType": "struct GameComments.Comment[]",
          "name": "",
          "type": "tuple[]"
        }
      ],
      "stateMutability": "view",
      "type": "function"
    },
    {
      "inputs": [],
      "name": "getAllOwnedComments",
      "outputs": [
        {
          "components": [
            {
              "internalType": "uint256",
              "name": "id",
              "type": "uint256"
            },
            {
              "internalType": "uint256",
              "name": "gameId",
              "type": "uint256"
            },
            {
              "internalType": "uint256",
              "name": "rating",
              "type": "uint256"
            },
            {
              "internalType": "address",
              "name": "author",
              "type": "address"
            },
            {
              "internalType": "string",
              "name": "content",
              "type": "string"
            },
            {
              "internalType": "uint256",
              "name": "timestamp",
              "type": "uint256"
            }
          ],
          "internalType": "struct GameComments.Comment[]",
          "name": "",
          "type": "tuple[]"
        }
      ],
      "stateMutability": "view",
      "type": "function"
    },
    {
      "inputs": [
        {
          "internalType": "uint256",
          "name": "_commentId",
          "type": "uint256"
        }
      ],
      "name": "getComment",
      "outputs": [
        {
          "internalType": "uint256",
          "name": "",
          "type": "uint256"
        },
        {
          "internalType": "uint256",
          "name": "",
          "type": "uint256"
        },
        {
          "internalType": "uint256",
          "name": "",
          "type": "uint256"
        },
        {
          "internalType": "address",
          "name": "",
          "type": "address"
        },
        {
          "internalType": "string",
          "name": "",
          "type": "string"
        },
        {
          "internalType": "uint256",
          "name": "",
          "type": "uint256"
        }
      ],
      "stateMutability": "view",
      "type": "function"
    },
    {
      "inputs": [],
      "name": "idCounter",
      "outputs": [
        {
          "internalType": "uint256",
          "name": "",
          "type": "uint256"
        }
      ],
      "stateMutability": "view",
      "type": "function"
    },
    {
      "inputs": [
        {
          "internalType": "address",
          "name": "account",
          "type": "address"
        },
        {
          "internalType": "address",
          "name": "operator",
          "type": "address"
        }
      ],
      "name": "isApprovedForAll",
      "outputs": [
        {
          "internalType": "bool",
          "name": "",
          "type": "bool"
        }
      ],
      "stateMutability": "view",
      "type": "function"
    },
    {
      "inputs": [],
      "name": "metadataURI",
      "outputs": [
        {
          "internalType": "string",
          "name": "",
          "type": "string"
        }
      ],
      "stateMutability": "view",
      "type": "function"
    },
    {
      "inputs": [],
      "name": "owner",
      "outputs": [
        {
          "internalType": "address",
          "name": "",
          "type": "address"
        }
      ],
      "stateMutability": "view",
      "type": "function"
    },
    {
      "inputs": [],
      "name": "renounceOwnership",
      "outputs": [],
      "stateMutability": "nonpayable",
      "type": "function"
    },
    {
      "inputs": [
        {
          "internalType": "address",
          "name": "from",
          "type": "address"
        },
        {
          "internalType": "address",
          "name": "to",
          "type": "address"
        },
        {
          "internalType": "uint256[]",
          "name": "ids",
          "type": "uint256[]"
        },
        {
          "internalType": "uint256[]",
          "name": "values",
          "type": "uint256[]"
        },
        {
          "internalType": "bytes",
          "name": "data",
          "type": "bytes"
        }
      ],
      "name": "safeBatchTransferFrom",
      "outputs": [],
      "stateMutability": "nonpayable",
      "type": "function"
    },
    {
      "inputs": [
        {
          "internalType": "address",
          "name": "from",
          "type": "address"
        },
        {
          "internalType": "address",
          "name": "to",
          "type": "address"
        },
        {
          "internalType": "uint256",
          "name": "id",
          "type": "uint256"
        },
        {
          "internalType": "uint256",
          "name": "value",
          "type": "uint256"
        },
        {
          "internalType": "bytes",
          "name": "data",
          "type": "bytes"
        }
      ],
      "name": "safeTransferFrom",
      "outputs": [],
      "stateMutability": "nonpayable",
      "type": "function"
    },
    {
      "inputs": [
        {
          "internalType": "address",
          "name": "operator",
          "type": "address"
        },
        {
          "internalType": "bool",
          "name": "approved",
          "type": "bool"
        }
      ],
      "name": "setApprovalForAll",
      "outputs": [],
      "stateMutability": "nonpayable",
      "type": "function"
    },
    {
      "inputs": [
        {
          "internalType": "address",
          "name": "_badgeManager",
          "type": "address"
        }
      ],
      "name": "setBadgeManager",
      "outputs": [],
      "stateMutability": "nonpayable",
      "type": "function"
    },
    {
      "inputs": [
        {
          "internalType": "bytes4",
          "name": "interfaceId",
          "type": "bytes4"
        }
      ],
      "name": "supportsInterface",
      "outputs": [
        {
          "internalType": "bool",
          "name": "",
          "type": "bool"
        }
      ],
      "stateMutability": "view",
      "type": "function"
    },
    {
      "inputs": [
        {
          "internalType": "address",
          "name": "newOwner",
          "type": "address"
        }
      ],
      "name": "transferOwnership",
      "outputs": [],
      "stateMutability": "nonpayable",
      "type": "function"
    },
    {
      "inputs": [
        {
          "internalType": "uint256",
          "name": "",
          "type": "uint256"
        }
      ],
      "name": "uri",
      "outputs": [
        {
          "internalType": "string",
          "name": "",
          "type": "string"
        }
      ],
      "stateMutability": "view",
      "type": "function"
    }
  ],
  "bytecode": "0x60806040523480156200001157600080fd5b5033604051806020016040528060008152506200003481620000e360201b60201c565b50600073ffffffffffffffffffffffffffffffffffffffff168173ffffffffffffffffffffffffffffffffffffffff1603620000aa5760006040517f1e4fbdf7000000000000000000000000000000000000000000000000000000008152600401620000a1919062000203565b60405180910390fd5b620000bb81620000f860201b60201c565b506040518060200160405280600081525060079081620000dc91906200049a565b5062000581565b8060029081620000f491906200049a565b5050565b6000600360009054906101000a900473ffffffffffffffffffffffffffffffffffffffff16905081600360006101000a81548173ffffffffffffffffffffffffffffffffffffffff021916908373ffffffffffffffffffffffffffffffffffffffff1602179055508173ffffffffffffffffffffffffffffffffffffffff168173ffffffffffffffffffffffffffffffffffffffff167f8be0079c531659141344cd1fd0a4f28419497f9722a3daafe3b4186f6b6457e060405160405180910390a35050565b600073ffffffffffffffffffffffffffffffffffffffff82169050919050565b6000620001eb82620001be565b9050919050565b620001fd81620001de565b82525050565b60006020820190506200021a6000830184620001f2565b92915050565b600081519050919050565b7f4e487b7100000000000000000000000000000000000000000000000000000000600052604160045260246000fd5b7f4e487b7100000000000000000000000000000000000000000000000000000000600052602260045260246000fd5b60006002820490506001821680620002a257607f821691505b602082108103620002b857620002b76200025a565b5b50919050565b60008190508160005260206000209050919050565b60006020601f8301049050919050565b600082821b905092915050565b600060088302620003227fffffffffffffffffffffffffffffffffffffffffffffffffffffffffffffffff82620002e3565b6200032e8683620002e3565b95508019841693508086168417925050509392505050565b6000819050919050565b6000819050919050565b60006200037b620003756200036f8462000346565b62000350565b62000346565b9050919050565b6000819050919050565b62000397836200035a565b620003af620003a68262000382565b848454620002f0565b825550505050565b600090565b620003c6620003b7565b620003d38184846200038c565b505050565b5b81811015620003fb57620003ef600082620003bc565b600181019050620003d9565b5050565b601f8211156200044a576200041481620002be565b6200041f84620002d3565b810160208510156200042f578190505b620004476200043e85620002d3565b830182620003d8565b50505b505050565b600082821c905092915050565b60006200046f600019846008026200044f565b1980831691505092915050565b60006200048a83836200045c565b9150826002028217905092915050565b620004a58262000220565b67ffffffffffffffff811115620004c157620004c06200022b565b5b620004cd825462000289565b620004da828285620003ff565b600060209050601f831160018114620005125760008415620004fd578287015190505b6200050985826200047c565b86555062000579565b601f1984166200052286620002be565b60005b828110156200054c5784890151825560018201915060208501945060208101905062000525565b868310156200056c578489015162000568601f8916826200045c565b8355505b6001600288020188555050505b505050505050565b61372c80620005916000396000f3fe608060405234801561001057600080fd5b50600436106101365760003560e01c8063715018a6116100b8578063a22cb4651161007c578063a22cb46514610381578063c88621281461039d578063e985e9c5146103b9578063eb08ab28146103e9578063f242432a14610407578063f2fde38b1461042357610136565b8063715018a6146102d65780637f5982b0146102e05780638da5cb5b146102fe5780638ebb4c151461031c5780639247a1ca1461035157610136565b806310440904116100ff578063104409041461021e5780632eb2c2d61461023c5780634e1273f41461025857806352bf358e146102885780636c6db136146102a657610136565b8062fdd58e1461013b57806301ffc9a71461016b57806303ee438c1461019b5780630800e300146101b95780630e89341c146101ee575b600080fd5b61015560048036038101906101509190612321565b61043f565b6040516101629190612370565b60405180910390f35b610185600480360381019061018091906123e3565b610499565b604051610192919061242b565b60405180910390f35b6101a361057b565b6040516101b091906124d6565b60405180910390f35b6101d360048036038101906101ce91906124f8565b610609565b6040516101e596959493929190612534565b60405180910390f35b610208600480360381019061020391906124f8565b61074e565b60405161021591906124d6565b60405180910390f35b6102266107e2565b604051610233919061274f565b60405180910390f35b6102566004803603810190610251919061296e565b6109e0565b005b610272600480360381019061026d9190612b00565b610a88565b60405161027f9190612c27565b60405180910390f35b610290610b97565b60405161029d9190612c49565b60405180910390f35b6102c060048036038101906102bb9190612d05565b610bbd565b6040516102cd9190612370565b60405180910390f35b6102de610e43565b005b6102e8610e57565b6040516102f5919061274f565b60405180910390f35b610306610f84565b6040516103139190612c49565b60405180910390f35b610336600480360381019061033191906124f8565b610fae565b60405161034896959493929190612534565b60405180910390f35b61036b600480360381019061036691906124f8565b611092565b604051610378919061274f565b60405180910390f35b61039b60048036038101906103969190612da0565b611195565b005b6103b760048036038101906103b29190612de0565b6111ab565b005b6103d360048036038101906103ce9190612e0d565b6111ef565b6040516103e0919061242b565b60405180910390f35b6103f1611283565b6040516103fe9190612370565b60405180910390f35b610421600480360381019061041c9190612e4d565b611289565b005b61043d60048036038101906104389190612de0565b611331565b005b600080600083815260200190815260200160002060008473ffffffffffffffffffffffffffffffffffffffff1673ffffffffffffffffffffffffffffffffffffffff16815260200190815260200160002054905092915050565b60007fd9b67a26000000000000000000000000000000000000000000000000000000007bffffffffffffffffffffffffffffffffffffffffffffffffffffffff1916827bffffffffffffffffffffffffffffffffffffffffffffffffffffffff1916148061056457507f0e89341c000000000000000000000000000000000000000000000000000000007bffffffffffffffffffffffffffffffffffffffffffffffffffffffff1916827bffffffffffffffffffffffffffffffffffffffffffffffffffffffff1916145b806105745750610573826113b7565b5b9050919050565b6007805461058890612f13565b80601f01602080910402602001604051908101604052809291908181526020018280546105b490612f13565b80156106015780601f106105d657610100808354040283529160200191610601565b820191906000526020600020905b8154815290600101906020018083116105e457829003601f168201915b505050505081565b60008060008060606000600554871115610658576040517f08c379a000000000000000000000000000000000000000000000000000000000815260040161064f90612f90565b60405180910390fd5b60006006600089815260200190815260200160002090508060000154816001015482600201548360030160009054906101000a900473ffffffffffffffffffffffffffffffffffffffff168460040185600501548180546106b890612f13565b80601f01602080910402602001604051908101604052809291908181526020018280546106e490612f13565b80156107315780601f1061070657610100808354040283529160200191610731565b820191906000526020600020905b81548152906001019060200180831161071457829003601f168201915b505050505091509650965096509650965096505091939550919395565b60606002805461075d90612f13565b80601f016020809104026020016040519081016040528092919081815260200182805461078990612f13565b80156107d65780601f106107ab576101008083540402835291602001916107d6565b820191906000526020600020905b8154815290600101906020018083116107b957829003601f168201915b50505050509050919050565b6060600060055467ffffffffffffffff81111561080257610801612776565b5b60405190808252806020026020018201604052801561083b57816020015b61082861222d565b8152602001906001900390816108205790505b5090506000600190505b60055481116109d85760006006600083815260200190815260200160002060000154146109c557600660008281526020019081526020016000206040518060c00160405290816000820154815260200160018201548152602001600282015481526020016003820160009054906101000a900473ffffffffffffffffffffffffffffffffffffffff1673ffffffffffffffffffffffffffffffffffffffff1673ffffffffffffffffffffffffffffffffffffffff16815260200160048201805461090e90612f13565b80601f016020809104026020016040519081016040528092919081815260200182805461093a90612f13565b80156109875780601f1061095c57610100808354040283529160200191610987565b820191906000526020600020905b81548152906001019060200180831161096a57829003601f168201915b50505050508152602001600582015481525050826001836109a89190612fdf565b815181106109b9576109b8613013565b5b60200260200101819052505b80806109d090613042565b915050610845565b508091505090565b60006109ea611421565b90508073ffffffffffffffffffffffffffffffffffffffff168673ffffffffffffffffffffffffffffffffffffffff1614158015610a2f5750610a2d86826111ef565b155b15610a735780866040517fe237d922000000000000000000000000000000000000000000000000000000008152600401610a6a92919061308a565b60405180910390fd5b610a808686868686611429565b505050505050565b60608151835114610ad457815183516040517f5b059991000000000000000000000000000000000000000000000000000000008152600401610acb9291906130b3565b60405180910390fd5b6000835167ffffffffffffffff811115610af157610af0612776565b5b604051908082528060200260200182016040528015610b1f5781602001602082028036833780820191505090505b50905060005b8451811015610b8c57610b5c610b44828761152190919063ffffffff16565b610b57838761153590919063ffffffff16565b61043f565b828281518110610b6f57610b6e613013565b5b60200260200101818152505080610b8590613042565b9050610b25565b508091505092915050565b600460009054906101000a900473ffffffffffffffffffffffffffffffffffffffff1681565b600080835111610c02576040517f08c379a0000000000000000000000000000000000000000000000000000000008152600401610bf990613128565b60405180910390fd5b6000600190505b6005548111610ceb573373ffffffffffffffffffffffffffffffffffffffff166006600083815260200190815260200160002060030160009054906101000a900473ffffffffffffffffffffffffffffffffffffffff1673ffffffffffffffffffffffffffffffffffffffff16148015610c985750846006600083815260200190815260200160002060010154145b15610cd8576040517f08c379a0000000000000000000000000000000000000000000000000000000008152600401610ccf906131ba565b60405180910390fd5b8080610ce390613042565b915050610c09565b5060056000815480929190610cff90613042565b91905055506040518060c0016040528060055481526020018581526020018381526020013373ffffffffffffffffffffffffffffffffffffffff1681526020018481526020014281525060066000600554815260200190815260200160002060008201518160000155602082015181600101556040820151816002015560608201518160030160006101000a81548173ffffffffffffffffffffffffffffffffffffffff021916908373ffffffffffffffffffffffffffffffffffffffff1602179055506080820151816004019081610dd89190613386565b5060a082015181600501559050506005543373ffffffffffffffffffffffffffffffffffffffff167f88b530a7df8b0ba30e4556bc019d7a5388b2186264d017220feca375ea4e587c60405160405180910390a3610e37336002611549565b60055490509392505050565b610e4b61166d565b610e5560006116f4565b565b60606000610e636107e2565b90506000815167ffffffffffffffff811115610e8257610e81612776565b5b604051908082528060200260200182016040528015610ebb57816020015b610ea861222d565b815260200190600190039081610ea05790505b5090506000805b8351811015610f77573373ffffffffffffffffffffffffffffffffffffffff16848281518110610ef557610ef4613013565b5b60200260200101516060015173ffffffffffffffffffffffffffffffffffffffff1603610f6457838181518110610f2f57610f2e613013565b5b6020026020010151838381518110610f4a57610f49613013565b5b60200260200101819052508180610f6090613042565b9250505b8080610f6f90613042565b915050610ec2565b5080825281935050505090565b6000600360009054906101000a900473ffffffffffffffffffffffffffffffffffffffff16905090565b60066020528060005260406000206000915090508060000154908060010154908060020154908060030160009054906101000a900473ffffffffffffffffffffffffffffffffffffffff169080600401805461100990612f13565b80601f016020809104026020016040519081016040528092919081815260200182805461103590612f13565b80156110825780601f1061105757610100808354040283529160200191611082565b820191906000526020600020905b81548152906001019060200180831161106557829003601f168201915b5050505050908060050154905086565b6060600061109e6107e2565b90506000815167ffffffffffffffff8111156110bd576110bc612776565b5b6040519080825280602002602001820160405280156110f657816020015b6110e361222d565b8152602001906001900390816110db5790505b5090506000805b8351811015611186578584828151811061111a57611119613013565b5b602002602001015160200151036111735783818151811061113e5761113d613013565b5b602002602001015183838151811061115957611158613013565b5b6020026020010181905250818061116f90613042565b9250505b808061117e90613042565b9150506110fd565b50808252819350505050919050565b6111a76111a0611421565b83836117ba565b5050565b80600460006101000a81548173ffffffffffffffffffffffffffffffffffffffff021916908373ffffffffffffffffffffffffffffffffffffffff16021790555050565b6000600160008473ffffffffffffffffffffffffffffffffffffffff1673ffffffffffffffffffffffffffffffffffffffff16815260200190815260200160002060008373ffffffffffffffffffffffffffffffffffffffff1673ffffffffffffffffffffffffffffffffffffffff16815260200190815260200160002060009054906101000a900460ff16905092915050565b60055481565b6000611293611421565b90508073ffffffffffffffffffffffffffffffffffffffff168673ffffffffffffffffffffffffffffffffffffffff16141580156112d857506112d686826111ef565b155b1561131c5780866040517fe237d92200000000000000000000000000000000000000000000000000000000815260040161131392919061308a565b60405180910390fd5b611329868686868661192a565b505050505050565b61133961166d565b600073ffffffffffffffffffffffffffffffffffffffff168173ffffffffffffffffffffffffffffffffffffffff16036113ab5760006040517f1e4fbdf70000000000000000000000000000000000000000000000000000000081526004016113a29190612c49565b60405180910390fd5b6113b4816116f4565b50565b60007f01ffc9a7000000000000000000000000000000000000000000000000000000007bffffffffffffffffffffffffffffffffffffffffffffffffffffffff1916827bffffffffffffffffffffffffffffffffffffffffffffffffffffffff1916149050919050565b600033905090565b600073ffffffffffffffffffffffffffffffffffffffff168473ffffffffffffffffffffffffffffffffffffffff160361149b5760006040517f57f447ce0000000000000000000000000000000000000000000000000000000081526004016114929190612c49565b60405180910390fd5b600073ffffffffffffffffffffffffffffffffffffffff168573ffffffffffffffffffffffffffffffffffffffff160361150d5760006040517f01a835140000000000000000000000000000000000000000000000000000000081526004016115049190612c49565b60405180910390fd5b61151a8585858585611a35565b5050505050565b600060208202602084010151905092915050565b600060208202602084010151905092915050565b600073ffffffffffffffffffffffffffffffffffffffff16600460009054906101000a900473ffffffffffffffffffffffffffffffffffffffff1673ffffffffffffffffffffffffffffffffffffffff16036115da576040517f08c379a00000000000000000000000000000000000000000000000000000000081526004016115d1906134a4565b60405180910390fd5b600460009054906101000a900473ffffffffffffffffffffffffffffffffffffffff1673ffffffffffffffffffffffffffffffffffffffff1663be76048883836040518363ffffffff1660e01b81526004016116379291906134c4565b600060405180830381600087803b15801561165157600080fd5b505af1158015611665573d6000803e3d6000fd5b505050505050565b611675611421565b73ffffffffffffffffffffffffffffffffffffffff16611693610f84565b73ffffffffffffffffffffffffffffffffffffffff16146116f2576116b6611421565b6040517f118cdaa70000000000000000000000000000000000000000000000000000000081526004016116e99190612c49565b60405180910390fd5b565b6000600360009054906101000a900473ffffffffffffffffffffffffffffffffffffffff16905081600360006101000a81548173ffffffffffffffffffffffffffffffffffffffff021916908373ffffffffffffffffffffffffffffffffffffffff1602179055508173ffffffffffffffffffffffffffffffffffffffff168173ffffffffffffffffffffffffffffffffffffffff167f8be0079c531659141344cd1fd0a4f28419497f9722a3daafe3b4186f6b6457e060405160405180910390a35050565b600073ffffffffffffffffffffffffffffffffffffffff168273ffffffffffffffffffffffffffffffffffffffff160361182c5760006040517fced3e1000000000000000000000000000000000000000000000000000000000081526004016118239190612c49565b60405180910390fd5b80600160008573ffffffffffffffffffffffffffffffffffffffff1673ffffffffffffffffffffffffffffffffffffffff16815260200190815260200160002060008473ffffffffffffffffffffffffffffffffffffffff1673ffffffffffffffffffffffffffffffffffffffff16815260200190815260200160002060006101000a81548160ff0219169083151502179055508173ffffffffffffffffffffffffffffffffffffffff168373ffffffffffffffffffffffffffffffffffffffff167f17307eab39ab6107e8899845ad3d59bd9653f200f220920489ca2b5937696c318360405161191d919061242b565b60405180910390a3505050565b600073ffffffffffffffffffffffffffffffffffffffff168473ffffffffffffffffffffffffffffffffffffffff160361199c5760006040517f57f447ce0000000000000000000000000000000000000000000000000000000081526004016119939190612c49565b60405180910390fd5b600073ffffffffffffffffffffffffffffffffffffffff168573ffffffffffffffffffffffffffffffffffffffff1603611a0e5760006040517f01a83514000000000000000000000000000000000000000000000000000000008152600401611a059190612c49565b60405180910390fd5b600080611a1b8585611ae7565b91509150611a2c8787848487611a35565b50505050505050565b611a4185858585611b17565b600073ffffffffffffffffffffffffffffffffffffffff168473ffffffffffffffffffffffffffffffffffffffff1614611ae0576000611a7f611421565b90506001845103611acf576000611aa060008661153590919063ffffffff16565b90506000611ab860008661153590919063ffffffff16565b9050611ac8838989858589611ec5565b5050611ade565b611add818787878787612079565b5b505b5050505050565b60608060405191506001825283602083015260408201905060018152826020820152604081016040529250929050565b8051825114611b6157815181516040517f5b059991000000000000000000000000000000000000000000000000000000008152600401611b589291906130b3565b60405180910390fd5b6000611b6b611421565b905060005b8351811015611d80576000611b8e828661153590919063ffffffff16565b90506000611ba5838661153590919063ffffffff16565b9050600073ffffffffffffffffffffffffffffffffffffffff168873ffffffffffffffffffffffffffffffffffffffff1614611cd257600080600084815260200190815260200160002060008a73ffffffffffffffffffffffffffffffffffffffff1673ffffffffffffffffffffffffffffffffffffffff16815260200190815260200160002054905081811015611c7a57888183856040517f03dee4c5000000000000000000000000000000000000000000000000000000008152600401611c7194939291906134ed565b60405180910390fd5b81810360008085815260200190815260200160002060008b73ffffffffffffffffffffffffffffffffffffffff1673ffffffffffffffffffffffffffffffffffffffff16815260200190815260200160002081905550505b600073ffffffffffffffffffffffffffffffffffffffff168773ffffffffffffffffffffffffffffffffffffffff1614611d6d578060008084815260200190815260200160002060008973ffffffffffffffffffffffffffffffffffffffff1673ffffffffffffffffffffffffffffffffffffffff1681526020019081526020016000206000828254611d659190613532565b925050819055505b505080611d7990613042565b9050611b70565b506001835103611e3f576000611da060008561153590919063ffffffff16565b90506000611db860008561153590919063ffffffff16565b90508573ffffffffffffffffffffffffffffffffffffffff168773ffffffffffffffffffffffffffffffffffffffff168473ffffffffffffffffffffffffffffffffffffffff167fc3d58168c5ae7397731d063d5bbf3d657854427343f4c083240f7aacaa2d0f628585604051611e309291906130b3565b60405180910390a45050611ebe565b8373ffffffffffffffffffffffffffffffffffffffff168573ffffffffffffffffffffffffffffffffffffffff168273ffffffffffffffffffffffffffffffffffffffff167f4a39dc06d4c0dbc64b70af90fd698a233a518aa5d07e595d983b8c0526c8f7fb8686604051611eb5929190613566565b60405180910390a45b5050505050565b60008473ffffffffffffffffffffffffffffffffffffffff163b1115612071578373ffffffffffffffffffffffffffffffffffffffff1663f23a6e6187878686866040518663ffffffff1660e01b8152600401611f269594939291906135f2565b6020604051808303816000875af1925050508015611f6257506040513d601f19601f82011682018060405250810190611f5f9190613661565b60015b611fe6573d8060008114611f92576040519150601f19603f3d011682016040523d82523d6000602084013e611f97565b606091505b506000815103611fde57846040517f57f447ce000000000000000000000000000000000000000000000000000000008152600401611fd59190612c49565b60405180910390fd5b805181602001fd5b63f23a6e6160e01b7bffffffffffffffffffffffffffffffffffffffffffffffffffffffff1916817bffffffffffffffffffffffffffffffffffffffffffffffffffffffff19161461206f57846040517f57f447ce0000000000000000000000000000000000000000000000000000000081526004016120669190612c49565b60405180910390fd5b505b505050505050565b60008473ffffffffffffffffffffffffffffffffffffffff163b1115612225578373ffffffffffffffffffffffffffffffffffffffff1663bc197c8187878686866040518663ffffffff1660e01b81526004016120da95949392919061368e565b6020604051808303816000875af192505050801561211657506040513d601f19601f820116820180604052508101906121139190613661565b60015b61219a573d8060008114612146576040519150601f19603f3d011682016040523d82523d6000602084013e61214b565b606091505b50600081510361219257846040517f57f447ce0000000000000000000000000000000000000000000000000000000081526004016121899190612c49565b60405180910390fd5b805181602001fd5b63bc197c8160e01b7bffffffffffffffffffffffffffffffffffffffffffffffffffffffff1916817bffffffffffffffffffffffffffffffffffffffffffffffffffffffff19161461222357846040517f57f447ce00000000000000000000000000000000000000000000000000000000815260040161221a9190612c49565b60405180910390fd5b505b505050505050565b6040518060c00160405280600081526020016000815260200160008152602001600073ffffffffffffffffffffffffffffffffffffffff16815260200160608152602001600081525090565b6000604051905090565b600080fd5b600080fd5b600073ffffffffffffffffffffffffffffffffffffffff82169050919050565b60006122b88261228d565b9050919050565b6122c8816122ad565b81146122d357600080fd5b50565b6000813590506122e5816122bf565b92915050565b6000819050919050565b6122fe816122eb565b811461230957600080fd5b50565b60008135905061231b816122f5565b92915050565b6000806040838503121561233857612337612283565b5b6000612346858286016122d6565b92505060206123578582860161230c565b9150509250929050565b61236a816122eb565b82525050565b60006020820190506123856000830184612361565b92915050565b60007fffffffff0000000000000000000000000000000000000000000000000000000082169050919050565b6123c08161238b565b81146123cb57600080fd5b50565b6000813590506123dd816123b7565b92915050565b6000602082840312156123f9576123f8612283565b5b6000612407848285016123ce565b91505092915050565b60008115159050919050565b61242581612410565b82525050565b6000602082019050612440600083018461241c565b92915050565b600081519050919050565b600082825260208201905092915050565b60005b83811015612480578082015181840152602081019050612465565b60008484015250505050565b6000601f19601f8301169050919050565b60006124a882612446565b6124b28185612451565b93506124c2818560208601612462565b6124cb8161248c565b840191505092915050565b600060208201905081810360008301526124f0818461249d565b905092915050565b60006020828403121561250e5761250d612283565b5b600061251c8482850161230c565b91505092915050565b61252e816122ad565b82525050565b600060c0820190506125496000830189612361565b6125566020830188612361565b6125636040830187612361565b6125706060830186612525565b8181036080830152612582818561249d565b905061259160a0830184612361565b979650505050505050565b600081519050919050565b600082825260208201905092915050565b6000819050602082019050919050565b6125d1816122eb565b82525050565b6125e0816122ad565b82525050565b600082825260208201905092915050565b600061260282612446565b61260c81856125e6565b935061261c818560208601612462565b6126258161248c565b840191505092915050565b600060c08301600083015161264860008601826125c8565b50602083015161265b60208601826125c8565b50604083015161266e60408601826125c8565b50606083015161268160608601826125d7565b506080830151848203608086015261269982826125f7565b91505060a08301516126ae60a08601826125c8565b508091505092915050565b60006126c58383612630565b905092915050565b6000602082019050919050565b60006126e58261259c565b6126ef81856125a7565b935083602082028501612701856125b8565b8060005b8581101561273d578484038952815161271e85826126b9565b9450612729836126cd565b925060208a01995050600181019050612705565b50829750879550505050505092915050565b6000602082019050818103600083015261276981846126da565b905092915050565b600080fd5b7f4e487b7100000000000000000000000000000000000000000000000000000000600052604160045260246000fd5b6127ae8261248c565b810181811067ffffffffffffffff821117156127cd576127cc612776565b5b80604052505050565b60006127e0612279565b90506127ec82826127a5565b919050565b600067ffffffffffffffff82111561280c5761280b612776565b5b602082029050602081019050919050565b600080fd5b6000612835612830846127f1565b6127d6565b905080838252602082019050602084028301858111156128585761285761281d565b5b835b81811015612881578061286d888261230c565b84526020840193505060208101905061285a565b5050509392505050565b600082601f8301126128a05761289f612771565b5b81356128b0848260208601612822565b91505092915050565b600080fd5b600067ffffffffffffffff8211156128d9576128d8612776565b5b6128e28261248c565b9050602081019050919050565b82818337600083830152505050565b600061291161290c846128be565b6127d6565b90508281526020810184848401111561292d5761292c6128b9565b5b6129388482856128ef565b509392505050565b600082601f83011261295557612954612771565b5b81356129658482602086016128fe565b91505092915050565b600080600080600060a0868803121561298a57612989612283565b5b6000612998888289016122d6565b95505060206129a9888289016122d6565b945050604086013567ffffffffffffffff8111156129ca576129c9612288565b5b6129d68882890161288b565b935050606086013567ffffffffffffffff8111156129f7576129f6612288565b5b612a038882890161288b565b925050608086013567ffffffffffffffff811115612a2457612a23612288565b5b612a3088828901612940565b9150509295509295909350565b600067ffffffffffffffff821115612a5857612a57612776565b5b602082029050602081019050919050565b6000612a7c612a7784612a3d565b6127d6565b90508083825260208201905060208402830185811115612a9f57612a9e61281d565b5b835b81811015612ac85780612ab488826122d6565b845260208401935050602081019050612aa1565b5050509392505050565b600082601f830112612ae757612ae6612771565b5b8135612af7848260208601612a69565b91505092915050565b60008060408385031215612b1757612b16612283565b5b600083013567ffffffffffffffff811115612b3557612b34612288565b5b612b4185828601612ad2565b925050602083013567ffffffffffffffff811115612b6257612b61612288565b5b612b6e8582860161288b565b9150509250929050565b600081519050919050565b600082825260208201905092915050565b6000819050602082019050919050565b6000612bb083836125c8565b60208301905092915050565b6000602082019050919050565b6000612bd482612b78565b612bde8185612b83565b9350612be983612b94565b8060005b83811015612c1a578151612c018882612ba4565b9750612c0c83612bbc565b925050600181019050612bed565b5085935050505092915050565b60006020820190508181036000830152612c418184612bc9565b905092915050565b6000602082019050612c5e6000830184612525565b92915050565b600067ffffffffffffffff821115612c7f57612c7e612776565b5b612c888261248c565b9050602081019050919050565b6000612ca8612ca384612c64565b6127d6565b905082815260208101848484011115612cc457612cc36128b9565b5b612ccf8482856128ef565b509392505050565b600082601f830112612cec57612ceb612771565b5b8135612cfc848260208601612c95565b91505092915050565b600080600060608486031215612d1e57612d1d612283565b5b6000612d2c8682870161230c565b935050602084013567ffffffffffffffff811115612d4d57612d4c612288565b5b612d5986828701612cd7565b9250506040612d6a8682870161230c565b9150509250925092565b612d7d81612410565b8114612d8857600080fd5b50565b600081359050612d9a81612d74565b92915050565b60008060408385031215612db757612db6612283565b5b6000612dc5858286016122d6565b9250506020612dd685828601612d8b565b9150509250929050565b600060208284031215612df657612df5612283565b5b6000612e04848285016122d6565b91505092915050565b60008060408385031215612e2457612e23612283565b5b6000612e32858286016122d6565b9250506020612e43858286016122d6565b9150509250929050565b600080600080600060a08688031215612e6957612e68612283565b5b6000612e77888289016122d6565b9550506020612e88888289016122d6565b9450506040612e998882890161230c565b9350506060612eaa8882890161230c565b925050608086013567ffffffffffffffff811115612ecb57612eca612288565b5b612ed788828901612940565b9150509295509295909350565b7f4e487b7100000000000000000000000000000000000000000000000000000000600052602260045260246000fd5b60006002820490506001821680612f2b57607f821691505b602082108103612f3e57612f3d612ee4565b5b50919050565b7f5468697320636f6d6d656e7420646f6573206e6f742065786973742e00000000600082015250565b6000612f7a601c83612451565b9150612f8582612f44565b602082019050919050565b60006020820190508181036000830152612fa981612f6d565b9050919050565b7f4e487b7100000000000000000000000000000000000000000000000000000000600052601160045260246000fd5b6000612fea826122eb565b9150612ff5836122eb565b925082820390508181111561300d5761300c612fb0565b5b92915050565b7f4e487b7100000000000000000000000000000000000000000000000000000000600052603260045260246000fd5b600061304d826122eb565b91507fffffffffffffffffffffffffffffffffffffffffffffffffffffffffffffffff820361307f5761307e612fb0565b5b600182019050919050565b600060408201905061309f6000830185612525565b6130ac6020830184612525565b9392505050565b60006040820190506130c86000830185612361565b6130d56020830184612361565b9392505050565b7f436f6d6d656e7420636f6e74656e742063616e6e6f7420626520656d7074792e600082015250565b6000613112602083612451565b915061311d826130dc565b602082019050919050565b6000602082019050818103600083015261314181613105565b9050919050565b7f5573657220616c726561647920686173206120636f6d6d656e7420666f72207460008201527f6869732067616d6549642e000000000000000000000000000000000000000000602082015250565b60006131a4602b83612451565b91506131af82613148565b604082019050919050565b600060208201905081810360008301526131d381613197565b9050919050565b60008190508160005260206000209050919050565b60006020601f8301049050919050565b600082821b905092915050565b60006008830261323c7fffffffffffffffffffffffffffffffffffffffffffffffffffffffffffffffff826131ff565b61324686836131ff565b95508019841693508086168417925050509392505050565b6000819050919050565b600061328361327e613279846122eb565b61325e565b6122eb565b9050919050565b6000819050919050565b61329d83613268565b6132b16132a98261328a565b84845461320c565b825550505050565b600090565b6132c66132b9565b6132d1818484613294565b505050565b5b818110156132f5576132ea6000826132be565b6001810190506132d7565b5050565b601f82111561333a5761330b816131da565b613314846131ef565b81016020851015613323578190505b61333761332f856131ef565b8301826132d6565b50505b505050565b600082821c905092915050565b600061335d6000198460080261333f565b1980831691505092915050565b6000613376838361334c565b9150826002028217905092915050565b61338f82612446565b67ffffffffffffffff8111156133a8576133a7612776565b5b6133b28254612f13565b6133bd8282856132f9565b600060209050601f8311600181146133f057600084156133de578287015190505b6133e8858261336a565b865550613450565b601f1984166133fe866131da565b60005b8281101561342657848901518255600182019150602085019450602081019050613401565b86831015613443578489015161343f601f89168261334c565b8355505b6001600288020188555050505b505050505050565b7f42616467654d616e61676572206e6f7420736574000000000000000000000000600082015250565b600061348e601483612451565b915061349982613458565b602082019050919050565b600060208201905081810360008301526134bd81613481565b9050919050565b60006040820190506134d96000830185612525565b6134e66020830184612361565b9392505050565b60006080820190506135026000830187612525565b61350f6020830186612361565b61351c6040830185612361565b6135296060830184612361565b95945050505050565b600061353d826122eb565b9150613548836122eb565b92508282019050808211156135605761355f612fb0565b5b92915050565b600060408201905081810360008301526135808185612bc9565b905081810360208301526135948184612bc9565b90509392505050565b600081519050919050565b600082825260208201905092915050565b60006135c48261359d565b6135ce81856135a8565b93506135de818560208601612462565b6135e78161248c565b840191505092915050565b600060a0820190506136076000830188612525565b6136146020830187612525565b6136216040830186612361565b61362e6060830185612361565b818103608083015261364081846135b9565b90509695505050505050565b60008151905061365b816123b7565b92915050565b60006020828403121561367757613676612283565b5b60006136858482850161364c565b91505092915050565b600060a0820190506136a36000830188612525565b6136b06020830187612525565b81810360408301526136c28186612bc9565b905081810360608301526136d68185612bc9565b905081810360808301526136ea81846135b9565b9050969550505050505056fea264697066735822122021d7cf050a801784e30ab4002eedeb95e1f571dbb6906d31b8d58ff86403790f64736f6c63430008140033",
  "linkReferences": {},
  "deployedLinkReferences": {}
}