{
  "_format": "hh-sol-artifact-1",
  "contractName": "BadgeManager",
  "sourceName": "contracts/BadgeManager.sol",
  "abi": [
    {
      "inputs": [],
      "stateMutability": "nonpayable",
      "type": "constructor"
    },
    {
      "inputs": [
        {
          "internalType": "address",
          "name": "sender",
          "type": "address"
        },
        {
          "internalType": "uint256",
          "name": "balance",
          "type": "uint256"
        },
        {
          "internalType": "uint256",
          "name": "needed",
          "type": "uint256"
        },
        {
          "internalType": "uint256",
          "name": "tokenId",
          "type": "uint256"
        }
      ],
      "name": "ERC1155InsufficientBalance",
      "type": "error"
    },
    {
      "inputs": [
        {
          "internalType": "address",
          "name": "approver",
          "type": "address"
        }
      ],
      "name": "ERC1155InvalidApprover",
      "type": "error"
    },
    {
      "inputs": [
        {
          "internalType": "uint256",
          "name": "idsLength",
          "type": "uint256"
        },
        {
          "internalType": "uint256",
          "name": "valuesLength",
          "type": "uint256"
        }
      ],
      "name": "ERC1155InvalidArrayLength",
      "type": "error"
    },
    {
      "inputs": [
        {
          "internalType": "address",
          "name": "operator",
          "type": "address"
        }
      ],
      "name": "ERC1155InvalidOperator",
      "type": "error"
    },
    {
      "inputs": [
        {
          "internalType": "address",
          "name": "receiver",
          "type": "address"
        }
      ],
      "name": "ERC1155InvalidReceiver",
      "type": "error"
    },
    {
      "inputs": [
        {
          "internalType": "address",
          "name": "sender",
          "type": "address"
        }
      ],
      "name": "ERC1155InvalidSender",
      "type": "error"
    },
    {
      "inputs": [
        {
          "internalType": "address",
          "name": "operator",
          "type": "address"
        },
        {
          "internalType": "address",
          "name": "owner",
          "type": "address"
        }
      ],
      "name": "ERC1155MissingApprovalForAll",
      "type": "error"
    },
    {
      "inputs": [
        {
          "internalType": "address",
          "name": "owner",
          "type": "address"
        }
      ],
      "name": "OwnableInvalidOwner",
      "type": "error"
    },
    {
      "inputs": [
        {
          "internalType": "address",
          "name": "account",
          "type": "address"
        }
      ],
      "name": "OwnableUnauthorizedAccount",
      "type": "error"
    },
    {
      "anonymous": false,
      "inputs": [
        {
          "indexed": true,
          "internalType": "address",
          "name": "account",
          "type": "address"
        },
        {
          "indexed": true,
          "internalType": "address",
          "name": "operator",
          "type": "address"
        },
        {
          "indexed": false,
          "internalType": "bool",
          "name": "approved",
          "type": "bool"
        }
      ],
      "name": "ApprovalForAll",
      "type": "event"
    },
    {
      "anonymous": false,
      "inputs": [
        {
          "indexed": true,
          "internalType": "address",
          "name": "to",
          "type": "address"
        },
        {
          "indexed": true,
          "internalType": "uint256",
          "name": "badgeId",
          "type": "uint256"
        }
      ],
      "name": "BadgeAssigned",
      "type": "event"
    },
    {
      "anonymous": false,
      "inputs": [
        {
          "indexed": true,
          "internalType": "uint256",
          "name": "badgeId",
          "type": "uint256"
        }
      ],
      "name": "BadgeCreated",
      "type": "event"
    },
    {
      "anonymous": false,
      "inputs": [
        {
          "indexed": true,
          "internalType": "uint256",
          "name": "badgeId",
          "type": "uint256"
        },
        {
          "indexed": true,
          "internalType": "address",
          "name": "to",
          "type": "address"
        }
      ],
      "name": "BadgeMinted",
      "type": "event"
    },
    {
      "anonymous": false,
      "inputs": [
        {
          "indexed": true,
          "internalType": "address",
          "name": "previousOwner",
          "type": "address"
        },
        {
          "indexed": true,
          "internalType": "address",
          "name": "newOwner",
          "type": "address"
        }
      ],
      "name": "OwnershipTransferred",
      "type": "event"
    },
    {
      "anonymous": false,
      "inputs": [
        {
          "indexed": true,
          "internalType": "address",
          "name": "operator",
          "type": "address"
        },
        {
          "indexed": true,
          "internalType": "address",
          "name": "from",
          "type": "address"
        },
        {
          "indexed": true,
          "internalType": "address",
          "name": "to",
          "type": "address"
        },
        {
          "indexed": false,
          "internalType": "uint256[]",
          "name": "ids",
          "type": "uint256[]"
        },
        {
          "indexed": false,
          "internalType": "uint256[]",
          "name": "values",
          "type": "uint256[]"
        }
      ],
      "name": "TransferBatch",
      "type": "event"
    },
    {
      "anonymous": false,
      "inputs": [
        {
          "indexed": true,
          "internalType": "address",
          "name": "operator",
          "type": "address"
        },
        {
          "indexed": true,
          "internalType": "address",
          "name": "from",
          "type": "address"
        },
        {
          "indexed": true,
          "internalType": "address",
          "name": "to",
          "type": "address"
        },
        {
          "indexed": false,
          "internalType": "uint256",
          "name": "id",
          "type": "uint256"
        },
        {
          "indexed": false,
          "internalType": "uint256",
          "name": "value",
          "type": "uint256"
        }
      ],
      "name": "TransferSingle",
      "type": "event"
    },
    {
      "anonymous": false,
      "inputs": [
        {
          "indexed": false,
          "internalType": "string",
          "name": "value",
          "type": "string"
        },
        {
          "indexed": true,
          "internalType": "uint256",
          "name": "id",
          "type": "uint256"
        }
      ],
      "name": "URI",
      "type": "event"
    },
    {
      "inputs": [
        {
          "internalType": "address",
          "name": "",
          "type": "address"
        }
      ],
      "name": "allowedAddresses",
      "outputs": [
        {
          "internalType": "bool",
          "name": "",
          "type": "bool"
        }
      ],
      "stateMutability": "view",
      "type": "function"
    },
    {
      "inputs": [
        {
          "internalType": "address",
          "name": "to",
          "type": "address"
        },
        {
          "internalType": "uint256",
          "name": "badgeId",
          "type": "uint256"
        }
      ],
      "name": "assign",
      "outputs": [],
      "stateMutability": "nonpayable",
      "type": "function"
    },
    {
      "inputs": [
        {
          "internalType": "uint256",
          "name": "",
          "type": "uint256"
        }
      ],
      "name": "badges",
      "outputs": [
        {
          "internalType": "bool",
          "name": "",
          "type": "bool"
        }
      ],
      "stateMutability": "view",
      "type": "function"
    },
    {
      "inputs": [
        {
          "internalType": "address",
          "name": "",
          "type": "address"
        },
        {
          "internalType": "uint256",
          "name": "",
          "type": "uint256"
        }
      ],
      "name": "badgesByOwner",
      "outputs": [
        {
          "internalType": "uint256",
          "name": "",
          "type": "uint256"
        }
      ],
      "stateMutability": "view",
      "type": "function"
    },
    {
      "inputs": [
        {
          "internalType": "address",
          "name": "account",
          "type": "address"
        },
        {
          "internalType": "uint256",
          "name": "id",
          "type": "uint256"
        }
      ],
      "name": "balanceOf",
      "outputs": [
        {
          "internalType": "uint256",
          "name": "",
          "type": "uint256"
        }
      ],
      "stateMutability": "view",
      "type": "function"
    },
    {
      "inputs": [
        {
          "internalType": "address[]",
          "name": "accounts",
          "type": "address[]"
        },
        {
          "internalType": "uint256[]",
          "name": "ids",
          "type": "uint256[]"
        }
      ],
      "name": "balanceOfBatch",
      "outputs": [
        {
          "internalType": "uint256[]",
          "name": "",
          "type": "uint256[]"
        }
      ],
      "stateMutability": "view",
      "type": "function"
    },
    {
      "inputs": [],
      "name": "getMyBadges",
      "outputs": [
        {
          "internalType": "uint256[]",
          "name": "",
          "type": "uint256[]"
        }
      ],
      "stateMutability": "view",
      "type": "function"
    },
    {
      "inputs": [],
      "name": "idCounter",
      "outputs": [
        {
          "internalType": "uint256",
          "name": "",
          "type": "uint256"
        }
      ],
      "stateMutability": "view",
      "type": "function"
    },
    {
      "inputs": [
        {
          "internalType": "address",
          "name": "account",
          "type": "address"
        },
        {
          "internalType": "address",
          "name": "operator",
          "type": "address"
        }
      ],
      "name": "isApprovedForAll",
      "outputs": [
        {
          "internalType": "bool",
          "name": "",
          "type": "bool"
        }
      ],
      "stateMutability": "view",
      "type": "function"
    },
    {
      "inputs": [],
      "name": "metadataURI",
      "outputs": [
        {
          "internalType": "string",
          "name": "",
          "type": "string"
        }
      ],
      "stateMutability": "view",
      "type": "function"
    },
    {
      "inputs": [],
      "name": "owner",
      "outputs": [
        {
          "internalType": "address",
          "name": "",
          "type": "address"
        }
      ],
      "stateMutability": "view",
      "type": "function"
    },
    {
      "inputs": [],
      "name": "registerBadge",
      "outputs": [
        {
          "internalType": "uint256",
          "name": "",
          "type": "uint256"
        }
      ],
      "stateMutability": "nonpayable",
      "type": "function"
    },
    {
      "inputs": [],
      "name": "renounceOwnership",
      "outputs": [],
      "stateMutability": "nonpayable",
      "type": "function"
    },
    {
      "inputs": [
        {
          "internalType": "address",
          "name": "from",
          "type": "address"
        },
        {
          "internalType": "address",
          "name": "to",
          "type": "address"
        },
        {
          "internalType": "uint256[]",
          "name": "ids",
          "type": "uint256[]"
        },
        {
          "internalType": "uint256[]",
          "name": "values",
          "type": "uint256[]"
        },
        {
          "internalType": "bytes",
          "name": "data",
          "type": "bytes"
        }
      ],
      "name": "safeBatchTransferFrom",
      "outputs": [],
      "stateMutability": "nonpayable",
      "type": "function"
    },
    {
      "inputs": [
        {
          "internalType": "address",
          "name": "from",
          "type": "address"
        },
        {
          "internalType": "address",
          "name": "to",
          "type": "address"
        },
        {
          "internalType": "uint256",
          "name": "id",
          "type": "uint256"
        },
        {
          "internalType": "uint256",
          "name": "value",
          "type": "uint256"
        },
        {
          "internalType": "bytes",
          "name": "data",
          "type": "bytes"
        }
      ],
      "name": "safeTransferFrom",
      "outputs": [],
      "stateMutability": "nonpayable",
      "type": "function"
    },
    {
      "inputs": [
        {
          "internalType": "address",
          "name": "_contract",
          "type": "address"
        },
        {
          "internalType": "bool",
          "name": "_allowed",
          "type": "bool"
        }
      ],
      "name": "setAllowedContract",
      "outputs": [],
      "stateMutability": "nonpayable",
      "type": "function"
    },
    {
      "inputs": [
        {
          "internalType": "address",
          "name": "operator",
          "type": "address"
        },
        {
          "internalType": "bool",
          "name": "approved",
          "type": "bool"
        }
      ],
      "name": "setApprovalForAll",
      "outputs": [],
      "stateMutability": "nonpayable",
      "type": "function"
    },
    {
      "inputs": [
        {
          "internalType": "string",
          "name": "_metadataURI",
          "type": "string"
        }
      ],
      "name": "setMetadataURI",
      "outputs": [],
      "stateMutability": "nonpayable",
      "type": "function"
    },
    {
      "inputs": [
        {
          "internalType": "bytes4",
          "name": "interfaceId",
          "type": "bytes4"
        }
      ],
      "name": "supportsInterface",
      "outputs": [
        {
          "internalType": "bool",
          "name": "",
          "type": "bool"
        }
      ],
      "stateMutability": "view",
      "type": "function"
    },
    {
      "inputs": [
        {
          "internalType": "address",
          "name": "newOwner",
          "type": "address"
        }
      ],
      "name": "transferOwnership",
      "outputs": [],
      "stateMutability": "nonpayable",
      "type": "function"
    },
    {
      "inputs": [
        {
          "internalType": "uint256",
          "name": "_tokenid",
          "type": "uint256"
        }
      ],
      "name": "uri",
      "outputs": [
        {
          "internalType": "string",
          "name": "",
          "type": "string"
        }
      ],
      "stateMutability": "view",
      "type": "function"
    }
  ],
  "bytecode": "0x60806040523480156200001157600080fd5b5033604051806020016040528060008152506200003481620000e360201b60201c565b50600073ffffffffffffffffffffffffffffffffffffffff168173ffffffffffffffffffffffffffffffffffffffff1603620000aa5760006040517f1e4fbdf7000000000000000000000000000000000000000000000000000000008152600401620000a1919062000203565b60405180910390fd5b620000bb81620000f860201b60201c565b506040518060200160405280600081525060079081620000dc91906200049a565b5062000581565b8060029081620000f491906200049a565b5050565b6000600360009054906101000a900473ffffffffffffffffffffffffffffffffffffffff16905081600360006101000a81548173ffffffffffffffffffffffffffffffffffffffff021916908373ffffffffffffffffffffffffffffffffffffffff1602179055508173ffffffffffffffffffffffffffffffffffffffff168173ffffffffffffffffffffffffffffffffffffffff167f8be0079c531659141344cd1fd0a4f28419497f9722a3daafe3b4186f6b6457e060405160405180910390a35050565b600073ffffffffffffffffffffffffffffffffffffffff82169050919050565b6000620001eb82620001be565b9050919050565b620001fd81620001de565b82525050565b60006020820190506200021a6000830184620001f2565b92915050565b600081519050919050565b7f4e487b7100000000000000000000000000000000000000000000000000000000600052604160045260246000fd5b7f4e487b7100000000000000000000000000000000000000000000000000000000600052602260045260246000fd5b60006002820490506001821680620002a257607f821691505b602082108103620002b857620002b76200025a565b5b50919050565b60008190508160005260206000209050919050565b60006020601f8301049050919050565b600082821b905092915050565b600060088302620003227fffffffffffffffffffffffffffffffffffffffffffffffffffffffffffffffff82620002e3565b6200032e8683620002e3565b95508019841693508086168417925050509392505050565b6000819050919050565b6000819050919050565b60006200037b620003756200036f8462000346565b62000350565b62000346565b9050919050565b6000819050919050565b62000397836200035a565b620003af620003a68262000382565b848454620002f0565b825550505050565b600090565b620003c6620003b7565b620003d38184846200038c565b505050565b5b81811015620003fb57620003ef600082620003bc565b600181019050620003d9565b5050565b601f8211156200044a576200041481620002be565b6200041f84620002d3565b810160208510156200042f578190505b620004476200043e85620002d3565b830182620003d8565b50505b505050565b600082821c905092915050565b60006200046f600019846008026200044f565b1980831691505092915050565b60006200048a83836200045c565b9150826002028217905092915050565b620004a58262000220565b67ffffffffffffffff811115620004c157620004c06200022b565b5b620004cd825462000289565b620004da828285620003ff565b600060209050601f831160018114620005125760008415620004fd578287015190505b6200050985826200047c565b86555062000579565b601f1984166200052286620002be565b60005b828110156200054c5784890151825560018201915060208501945060208101905062000525565b868310156200056c578489015162000568601f8916826200045c565b8355505b6001600288020188555050505b505050505050565b61306280620005916000396000f3fe608060405234801561001057600080fd5b50600436106101365760003560e01c8063750521f5116100b8578063be7604881161007c578063be7604881461035f578063e985e9c51461037b578063eb08ab28146103ab578063f242432a146103c9578063f2fde38b146103e5578063fbda1c4f1461040157610136565b8063750521f5146102a95780638b39d5b9146102c55780638da5cb5b146102f557806398e36d8b14610313578063a22cb4651461034357610136565b80634120657a116100ff5780634120657a1461020557806347cc5d04146102355780634e1273f41461025357806355de1faf14610283578063715018a61461029f57610136565b8062fdd58e1461013b57806301ffc9a71461016b57806303ee438c1461019b5780630e89341c146101b95780632eb2c2d6146101e9575b600080fd5b61015560048036038101906101509190611e77565b61041f565b6040516101629190611ec6565b60405180910390f35b61018560048036038101906101809190611f39565b610479565b6040516101929190611f81565b60405180910390f35b6101a361055b565b6040516101b0919061202c565b60405180910390f35b6101d360048036038101906101ce919061204e565b6105e9565b6040516101e0919061202c565b60405180910390f35b61020360048036038101906101fe9190612278565b61061d565b005b61021f600480360381019061021a9190612347565b6106c5565b60405161022c9190611f81565b60405180910390f35b61023d6106e5565b60405161024a9190611ec6565b60405180910390f35b61026d60048036038101906102689190612437565b61076c565b60405161027a919061256d565b60405180910390f35b61029d600480360381019061029891906125bb565b61087b565b005b6102a76108de565b005b6102c360048036038101906102be919061269c565b6108f2565b005b6102df60048036038101906102da9190611e77565b61090d565b6040516102ec9190611ec6565b60405180910390f35b6102fd61093e565b60405161030a91906126f4565b60405180910390f35b61032d6004803603810190610328919061204e565b610968565b60405161033a9190611f81565b60405180910390f35b61035d600480360381019061035891906125bb565b610988565b005b61037960048036038101906103749190611e77565b61099e565b005b6103956004803603810190610390919061270f565b610b66565b6040516103a29190611f81565b60405180910390f35b6103b3610bfa565b6040516103c09190611ec6565b60405180910390f35b6103e360048036038101906103de919061274f565b610c00565b005b6103ff60048036038101906103fa9190612347565b610ca8565b005b610409610d2e565b604051610416919061256d565b60405180910390f35b600080600083815260200190815260200160002060008473ffffffffffffffffffffffffffffffffffffffff1673ffffffffffffffffffffffffffffffffffffffff16815260200190815260200160002054905092915050565b60007fd9b67a26000000000000000000000000000000000000000000000000000000007bffffffffffffffffffffffffffffffffffffffffffffffffffffffff1916827bffffffffffffffffffffffffffffffffffffffffffffffffffffffff1916148061054457507f0e89341c000000000000000000000000000000000000000000000000000000007bffffffffffffffffffffffffffffffffffffffffffffffffffffffff1916827bffffffffffffffffffffffffffffffffffffffffffffffffffffffff1916145b80610554575061055382610dc3565b5b9050919050565b6007805461056890612815565b80601f016020809104026020016040519081016040528092919081815260200182805461059490612815565b80156105e15780601f106105b6576101008083540402835291602001916105e1565b820191906000526020600020905b8154815290600101906020018083116105c457829003601f168201915b505050505081565b606060076105f683610e2d565b604051602001610607929190612966565b6040516020818303038152906040529050919050565b6000610627610efb565b90508073ffffffffffffffffffffffffffffffffffffffff168673ffffffffffffffffffffffffffffffffffffffff161415801561066c575061066a8682610b66565b155b156106b05780866040517fe237d9220000000000000000000000000000000000000000000000000000000081526004016106a7929190612995565b60405180910390fd5b6106bd8686868686610f03565b505050505050565b60086020528060005260406000206000915054906101000a900460ff1681565b60006106ef610ffb565b60046000815480929190610702906129ed565b9190505550600160056000600454815260200190815260200160002060006101000a81548160ff0219169083151502179055506004547f8fee70784047781f0f7892be51b59a1c8ff5854f313fec8687443f4c6b08f67560405160405180910390a2600454905090565b606081518351146107b857815183516040517f5b0599910000000000000000000000000000000000000000000000000000000081526004016107af929190612a35565b60405180910390fd5b6000835167ffffffffffffffff8111156107d5576107d4612080565b5b6040519080825280602002602001820160405280156108035781602001602082028036833780820191505090505b50905060005b845181101561087057610840610828828761108290919063ffffffff16565b61083b838761109690919063ffffffff16565b61041f565b82828151811061085357610852612a5e565b5b60200260200101818152505080610869906129ed565b9050610809565b508091505092915050565b610883610ffb565b80600860008473ffffffffffffffffffffffffffffffffffffffff1673ffffffffffffffffffffffffffffffffffffffff16815260200190815260200160002060006101000a81548160ff0219169083151502179055505050565b6108e6610ffb565b6108f060006110aa565b565b6108fa610ffb565b80600790816109099190612c24565b5050565b6006602052816000526040600020818154811061092957600080fd5b90600052602060002001600091509150505481565b6000600360009054906101000a900473ffffffffffffffffffffffffffffffffffffffff16905090565b60056020528060005260406000206000915054906101000a900460ff1681565b61099a610993610efb565b8383611170565b5050565b6005600082815260200190815260200160002060009054906101000a900460ff166109fe576040517f08c379a00000000000000000000000000000000000000000000000000000000081526004016109f590612d42565b60405180910390fd5b600860003373ffffffffffffffffffffffffffffffffffffffff1673ffffffffffffffffffffffffffffffffffffffff16815260200190815260200160002060009054906101000a900460ff16610a8a576040517f08c379a0000000000000000000000000000000000000000000000000000000008152600401610a8190612dd4565b60405180910390fd5b6000610a96838361041f565b03610b6257610ab782826001604051806020016040528060008152506112e0565b8173ffffffffffffffffffffffffffffffffffffffff16817fc5ed7807acb8379bb92578426d8da29ca07151f8262832fb7dfa94468f933dbb60405160405180910390a3600660008373ffffffffffffffffffffffffffffffffffffffff1673ffffffffffffffffffffffffffffffffffffffff1681526020019081526020016000208190806001815401808255809150506001900390600052602060002001600090919091909150555b5050565b6000600160008473ffffffffffffffffffffffffffffffffffffffff1673ffffffffffffffffffffffffffffffffffffffff16815260200190815260200160002060008373ffffffffffffffffffffffffffffffffffffffff1673ffffffffffffffffffffffffffffffffffffffff16815260200190815260200160002060009054906101000a900460ff16905092915050565b60045481565b6000610c0a610efb565b90508073ffffffffffffffffffffffffffffffffffffffff168673ffffffffffffffffffffffffffffffffffffffff1614158015610c4f5750610c4d8682610b66565b155b15610c935780866040517fe237d922000000000000000000000000000000000000000000000000000000008152600401610c8a929190612995565b60405180910390fd5b610ca08686868686611379565b505050505050565b610cb0610ffb565b600073ffffffffffffffffffffffffffffffffffffffff168173ffffffffffffffffffffffffffffffffffffffff1603610d225760006040517f1e4fbdf7000000000000000000000000000000000000000000000000000000008152600401610d1991906126f4565b60405180910390fd5b610d2b816110aa565b50565b6060600660003373ffffffffffffffffffffffffffffffffffffffff1673ffffffffffffffffffffffffffffffffffffffff168152602001908152602001600020805480602002602001604051908101604052809291908181526020018280548015610db957602002820191906000526020600020905b815481526020019060010190808311610da5575b5050505050905090565b60007f01ffc9a7000000000000000000000000000000000000000000000000000000007bffffffffffffffffffffffffffffffffffffffffffffffffffffffff1916827bffffffffffffffffffffffffffffffffffffffffffffffffffffffff1916149050919050565b606060006001610e3c84611484565b01905060008167ffffffffffffffff811115610e5b57610e5a612080565b5b6040519080825280601f01601f191660200182016040528015610e8d5781602001600182028036833780820191505090505b509050600082602001820190505b600115610ef0578080600190039150507f3031323334353637383961626364656600000000000000000000000000000000600a86061a8153600a8581610ee457610ee3612df4565b5b04945060008503610e9b575b819350505050919050565b600033905090565b600073ffffffffffffffffffffffffffffffffffffffff168473ffffffffffffffffffffffffffffffffffffffff1603610f755760006040517f57f447ce000000000000000000000000000000000000000000000000000000008152600401610f6c91906126f4565b60405180910390fd5b600073ffffffffffffffffffffffffffffffffffffffff168573ffffffffffffffffffffffffffffffffffffffff1603610fe75760006040517f01a83514000000000000000000000000000000000000000000000000000000008152600401610fde91906126f4565b60405180910390fd5b610ff485858585856115d7565b5050505050565b611003610efb565b73ffffffffffffffffffffffffffffffffffffffff1661102161093e565b73ffffffffffffffffffffffffffffffffffffffff161461108057611044610efb565b6040517f118cdaa700000000000000000000000000000000000000000000000000000000815260040161107791906126f4565b60405180910390fd5b565b600060208202602084010151905092915050565b600060208202602084010151905092915050565b6000600360009054906101000a900473ffffffffffffffffffffffffffffffffffffffff16905081600360006101000a81548173ffffffffffffffffffffffffffffffffffffffff021916908373ffffffffffffffffffffffffffffffffffffffff1602179055508173ffffffffffffffffffffffffffffffffffffffff168173ffffffffffffffffffffffffffffffffffffffff167f8be0079c531659141344cd1fd0a4f28419497f9722a3daafe3b4186f6b6457e060405160405180910390a35050565b600073ffffffffffffffffffffffffffffffffffffffff168273ffffffffffffffffffffffffffffffffffffffff16036111e25760006040517fced3e1000000000000000000000000000000000000000000000000000000000081526004016111d991906126f4565b60405180910390fd5b80600160008573ffffffffffffffffffffffffffffffffffffffff1673ffffffffffffffffffffffffffffffffffffffff16815260200190815260200160002060008473ffffffffffffffffffffffffffffffffffffffff1673ffffffffffffffffffffffffffffffffffffffff16815260200190815260200160002060006101000a81548160ff0219169083151502179055508173ffffffffffffffffffffffffffffffffffffffff168373ffffffffffffffffffffffffffffffffffffffff167f17307eab39ab6107e8899845ad3d59bd9653f200f220920489ca2b5937696c31836040516112d39190611f81565b60405180910390a3505050565b600073ffffffffffffffffffffffffffffffffffffffff168473ffffffffffffffffffffffffffffffffffffffff16036113525760006040517f57f447ce00000000000000000000000000000000000000000000000000000000815260040161134991906126f4565b60405180910390fd5b60008061135f8585611689565b915091506113716000878484876115d7565b505050505050565b600073ffffffffffffffffffffffffffffffffffffffff168473ffffffffffffffffffffffffffffffffffffffff16036113eb5760006040517f57f447ce0000000000000000000000000000000000000000000000000000000081526004016113e291906126f4565b60405180910390fd5b600073ffffffffffffffffffffffffffffffffffffffff168573ffffffffffffffffffffffffffffffffffffffff160361145d5760006040517f01a8351400000000000000000000000000000000000000000000000000000000815260040161145491906126f4565b60405180910390fd5b60008061146a8585611689565b9150915061147b87878484876115d7565b50505050505050565b600080600090507a184f03e93ff9f4daa797ed6e38ed64bf6a1f01000000000000000083106114e2577a184f03e93ff9f4daa797ed6e38ed64bf6a1f01000000000000000083816114d8576114d7612df4565b5b0492506040810190505b6d04ee2d6d415b85acef8100000000831061151f576d04ee2d6d415b85acef8100000000838161151557611514612df4565b5b0492506020810190505b662386f26fc10000831061154e57662386f26fc10000838161154457611543612df4565b5b0492506010810190505b6305f5e1008310611577576305f5e100838161156d5761156c612df4565b5b0492506008810190505b612710831061159c57612710838161159257611591612df4565b5b0492506004810190505b606483106115bf57606483816115b5576115b4612df4565b5b0492506002810190505b600a83106115ce576001810190505b80915050919050565b6115e3858585856116b9565b600073ffffffffffffffffffffffffffffffffffffffff168473ffffffffffffffffffffffffffffffffffffffff1614611682576000611621610efb565b9050600184510361167157600061164260008661109690919063ffffffff16565b9050600061165a60008661109690919063ffffffff16565b905061166a838989858589611a67565b5050611680565b61167f818787878787611c1b565b5b505b5050505050565b60608060405191506001825283602083015260408201905060018152826020820152604081016040529250929050565b805182511461170357815181516040517f5b0599910000000000000000000000000000000000000000000000000000000081526004016116fa929190612a35565b60405180910390fd5b600061170d610efb565b905060005b8351811015611922576000611730828661109690919063ffffffff16565b90506000611747838661109690919063ffffffff16565b9050600073ffffffffffffffffffffffffffffffffffffffff168873ffffffffffffffffffffffffffffffffffffffff161461187457600080600084815260200190815260200160002060008a73ffffffffffffffffffffffffffffffffffffffff1673ffffffffffffffffffffffffffffffffffffffff1681526020019081526020016000205490508181101561181c57888183856040517f03dee4c50000000000000000000000000000000000000000000000000000000081526004016118139493929190612e23565b60405180910390fd5b81810360008085815260200190815260200160002060008b73ffffffffffffffffffffffffffffffffffffffff1673ffffffffffffffffffffffffffffffffffffffff16815260200190815260200160002081905550505b600073ffffffffffffffffffffffffffffffffffffffff168773ffffffffffffffffffffffffffffffffffffffff161461190f578060008084815260200190815260200160002060008973ffffffffffffffffffffffffffffffffffffffff1673ffffffffffffffffffffffffffffffffffffffff16815260200190815260200160002060008282546119079190612e68565b925050819055505b50508061191b906129ed565b9050611712565b5060018351036119e157600061194260008561109690919063ffffffff16565b9050600061195a60008561109690919063ffffffff16565b90508573ffffffffffffffffffffffffffffffffffffffff168773ffffffffffffffffffffffffffffffffffffffff168473ffffffffffffffffffffffffffffffffffffffff167fc3d58168c5ae7397731d063d5bbf3d657854427343f4c083240f7aacaa2d0f6285856040516119d2929190612a35565b60405180910390a45050611a60565b8373ffffffffffffffffffffffffffffffffffffffff168573ffffffffffffffffffffffffffffffffffffffff168273ffffffffffffffffffffffffffffffffffffffff167f4a39dc06d4c0dbc64b70af90fd698a233a518aa5d07e595d983b8c0526c8f7fb8686604051611a57929190612e9c565b60405180910390a45b5050505050565b60008473ffffffffffffffffffffffffffffffffffffffff163b1115611c13578373ffffffffffffffffffffffffffffffffffffffff1663f23a6e6187878686866040518663ffffffff1660e01b8152600401611ac8959493929190612f28565b6020604051808303816000875af1925050508015611b0457506040513d601f19601f82011682018060405250810190611b019190612f97565b60015b611b88573d8060008114611b34576040519150601f19603f3d011682016040523d82523d6000602084013e611b39565b606091505b506000815103611b8057846040517f57f447ce000000000000000000000000000000000000000000000000000000008152600401611b7791906126f4565b60405180910390fd5b805181602001fd5b63f23a6e6160e01b7bffffffffffffffffffffffffffffffffffffffffffffffffffffffff1916817bffffffffffffffffffffffffffffffffffffffffffffffffffffffff191614611c1157846040517f57f447ce000000000000000000000000000000000000000000000000000000008152600401611c0891906126f4565b60405180910390fd5b505b505050505050565b60008473ffffffffffffffffffffffffffffffffffffffff163b1115611dc7578373ffffffffffffffffffffffffffffffffffffffff1663bc197c8187878686866040518663ffffffff1660e01b8152600401611c7c959493929190612fc4565b6020604051808303816000875af1925050508015611cb857506040513d601f19601f82011682018060405250810190611cb59190612f97565b60015b611d3c573d8060008114611ce8576040519150601f19603f3d011682016040523d82523d6000602084013e611ced565b606091505b506000815103611d3457846040517f57f447ce000000000000000000000000000000000000000000000000000000008152600401611d2b91906126f4565b60405180910390fd5b805181602001fd5b63bc197c8160e01b7bffffffffffffffffffffffffffffffffffffffffffffffffffffffff1916817bffffffffffffffffffffffffffffffffffffffffffffffffffffffff191614611dc557846040517f57f447ce000000000000000000000000000000000000000000000000000000008152600401611dbc91906126f4565b60405180910390fd5b505b505050505050565b6000604051905090565b600080fd5b600080fd5b600073ffffffffffffffffffffffffffffffffffffffff82169050919050565b6000611e0e82611de3565b9050919050565b611e1e81611e03565b8114611e2957600080fd5b50565b600081359050611e3b81611e15565b92915050565b6000819050919050565b611e5481611e41565b8114611e5f57600080fd5b50565b600081359050611e7181611e4b565b92915050565b60008060408385031215611e8e57611e8d611dd9565b5b6000611e9c85828601611e2c565b9250506020611ead85828601611e62565b9150509250929050565b611ec081611e41565b82525050565b6000602082019050611edb6000830184611eb7565b92915050565b60007fffffffff0000000000000000000000000000000000000000000000000000000082169050919050565b611f1681611ee1565b8114611f2157600080fd5b50565b600081359050611f3381611f0d565b92915050565b600060208284031215611f4f57611f4e611dd9565b5b6000611f5d84828501611f24565b91505092915050565b60008115159050919050565b611f7b81611f66565b82525050565b6000602082019050611f966000830184611f72565b92915050565b600081519050919050565b600082825260208201905092915050565b60005b83811015611fd6578082015181840152602081019050611fbb565b60008484015250505050565b6000601f19601f8301169050919050565b6000611ffe82611f9c565b6120088185611fa7565b9350612018818560208601611fb8565b61202181611fe2565b840191505092915050565b600060208201905081810360008301526120468184611ff3565b905092915050565b60006020828403121561206457612063611dd9565b5b600061207284828501611e62565b91505092915050565b600080fd5b7f4e487b7100000000000000000000000000000000000000000000000000000000600052604160045260246000fd5b6120b882611fe2565b810181811067ffffffffffffffff821117156120d7576120d6612080565b5b80604052505050565b60006120ea611dcf565b90506120f682826120af565b919050565b600067ffffffffffffffff82111561211657612115612080565b5b602082029050602081019050919050565b600080fd5b600061213f61213a846120fb565b6120e0565b9050808382526020820190506020840283018581111561216257612161612127565b5b835b8181101561218b57806121778882611e62565b845260208401935050602081019050612164565b5050509392505050565b600082601f8301126121aa576121a961207b565b5b81356121ba84826020860161212c565b91505092915050565b600080fd5b600067ffffffffffffffff8211156121e3576121e2612080565b5b6121ec82611fe2565b9050602081019050919050565b82818337600083830152505050565b600061221b612216846121c8565b6120e0565b905082815260208101848484011115612237576122366121c3565b5b6122428482856121f9565b509392505050565b600082601f83011261225f5761225e61207b565b5b813561226f848260208601612208565b91505092915050565b600080600080600060a0868803121561229457612293611dd9565b5b60006122a288828901611e2c565b95505060206122b388828901611e2c565b945050604086013567ffffffffffffffff8111156122d4576122d3611dde565b5b6122e088828901612195565b935050606086013567ffffffffffffffff81111561230157612300611dde565b5b61230d88828901612195565b925050608086013567ffffffffffffffff81111561232e5761232d611dde565b5b61233a8882890161224a565b9150509295509295909350565b60006020828403121561235d5761235c611dd9565b5b600061236b84828501611e2c565b91505092915050565b600067ffffffffffffffff82111561238f5761238e612080565b5b602082029050602081019050919050565b60006123b36123ae84612374565b6120e0565b905080838252602082019050602084028301858111156123d6576123d5612127565b5b835b818110156123ff57806123eb8882611e2c565b8452602084019350506020810190506123d8565b5050509392505050565b600082601f83011261241e5761241d61207b565b5b813561242e8482602086016123a0565b91505092915050565b6000806040838503121561244e5761244d611dd9565b5b600083013567ffffffffffffffff81111561246c5761246b611dde565b5b61247885828601612409565b925050602083013567ffffffffffffffff81111561249957612498611dde565b5b6124a585828601612195565b9150509250929050565b600081519050919050565b600082825260208201905092915050565b6000819050602082019050919050565b6124e481611e41565b82525050565b60006124f683836124db565b60208301905092915050565b6000602082019050919050565b600061251a826124af565b61252481856124ba565b935061252f836124cb565b8060005b8381101561256057815161254788826124ea565b975061255283612502565b925050600181019050612533565b5085935050505092915050565b60006020820190508181036000830152612587818461250f565b905092915050565b61259881611f66565b81146125a357600080fd5b50565b6000813590506125b58161258f565b92915050565b600080604083850312156125d2576125d1611dd9565b5b60006125e085828601611e2c565b92505060206125f1858286016125a6565b9150509250929050565b600067ffffffffffffffff82111561261657612615612080565b5b61261f82611fe2565b9050602081019050919050565b600061263f61263a846125fb565b6120e0565b90508281526020810184848401111561265b5761265a6121c3565b5b6126668482856121f9565b509392505050565b600082601f8301126126835761268261207b565b5b813561269384826020860161262c565b91505092915050565b6000602082840312156126b2576126b1611dd9565b5b600082013567ffffffffffffffff8111156126d0576126cf611dde565b5b6126dc8482850161266e565b91505092915050565b6126ee81611e03565b82525050565b600060208201905061270960008301846126e5565b92915050565b6000806040838503121561272657612725611dd9565b5b600061273485828601611e2c565b925050602061274585828601611e2c565b9150509250929050565b600080600080600060a0868803121561276b5761276a611dd9565b5b600061277988828901611e2c565b955050602061278a88828901611e2c565b945050604061279b88828901611e62565b93505060606127ac88828901611e62565b925050608086013567ffffffffffffffff8111156127cd576127cc611dde565b5b6127d98882890161224a565b9150509295509295909350565b7f4e487b7100000000000000000000000000000000000000000000000000000000600052602260045260246000fd5b6000600282049050600182168061282d57607f821691505b6020821081036128405761283f6127e6565b5b50919050565b600081905092915050565b60008190508160005260206000209050919050565b6000815461287381612815565b61287d8186612846565b9450600182166000811461289857600181146128ad576128e0565b60ff19831686528115158202860193506128e0565b6128b685612851565b60005b838110156128d8578154818901526001820191506020810190506128b9565b838801955050505b50505092915050565b60006128f482611f9c565b6128fe8185612846565b935061290e818560208601611fb8565b80840191505092915050565b7f2e6a736f6e000000000000000000000000000000000000000000000000000000600082015250565b6000612950600583612846565b915061295b8261291a565b600582019050919050565b60006129728285612866565b915061297e82846128e9565b915061298982612943565b91508190509392505050565b60006040820190506129aa60008301856126e5565b6129b760208301846126e5565b9392505050565b7f4e487b7100000000000000000000000000000000000000000000000000000000600052601160045260246000fd5b60006129f882611e41565b91507fffffffffffffffffffffffffffffffffffffffffffffffffffffffffffffffff8203612a2a57612a296129be565b5b600182019050919050565b6000604082019050612a4a6000830185611eb7565b612a576020830184611eb7565b9392505050565b7f4e487b7100000000000000000000000000000000000000000000000000000000600052603260045260246000fd5b60006020601f8301049050919050565b600082821b905092915050565b600060088302612ada7fffffffffffffffffffffffffffffffffffffffffffffffffffffffffffffffff82612a9d565b612ae48683612a9d565b95508019841693508086168417925050509392505050565b6000819050919050565b6000612b21612b1c612b1784611e41565b612afc565b611e41565b9050919050565b6000819050919050565b612b3b83612b06565b612b4f612b4782612b28565b848454612aaa565b825550505050565b600090565b612b64612b57565b612b6f818484612b32565b505050565b5b81811015612b9357612b88600082612b5c565b600181019050612b75565b5050565b601f821115612bd857612ba981612851565b612bb284612a8d565b81016020851015612bc1578190505b612bd5612bcd85612a8d565b830182612b74565b50505b505050565b600082821c905092915050565b6000612bfb60001984600802612bdd565b1980831691505092915050565b6000612c148383612bea565b9150826002028217905092915050565b612c2d82611f9c565b67ffffffffffffffff811115612c4657612c45612080565b5b612c508254612815565b612c5b828285612b97565b600060209050601f831160018114612c8e5760008415612c7c578287015190505b612c868582612c08565b865550612cee565b601f198416612c9c86612851565b60005b82811015612cc457848901518255600182019150602085019450602081019050612c9f565b86831015612ce15784890151612cdd601f891682612bea565b8355505b6001600288020188555050505b505050505050565b7f496e76616c696420626164676520696400000000000000000000000000000000600082015250565b6000612d2c601083611fa7565b9150612d3782612cf6565b602082019050919050565b60006020820190508181036000830152612d5b81612d1f565b9050919050565b7f54686520616464726573732069736e277420616c6c6f77656420746f206d696e60008201527f7400000000000000000000000000000000000000000000000000000000000000602082015250565b6000612dbe602183611fa7565b9150612dc982612d62565b604082019050919050565b60006020820190508181036000830152612ded81612db1565b9050919050565b7f4e487b7100000000000000000000000000000000000000000000000000000000600052601260045260246000fd5b6000608082019050612e3860008301876126e5565b612e456020830186611eb7565b612e526040830185611eb7565b612e5f6060830184611eb7565b95945050505050565b6000612e7382611e41565b9150612e7e83611e41565b9250828201905080821115612e9657612e956129be565b5b92915050565b60006040820190508181036000830152612eb6818561250f565b90508181036020830152612eca818461250f565b90509392505050565b600081519050919050565b600082825260208201905092915050565b6000612efa82612ed3565b612f048185612ede565b9350612f14818560208601611fb8565b612f1d81611fe2565b840191505092915050565b600060a082019050612f3d60008301886126e5565b612f4a60208301876126e5565b612f576040830186611eb7565b612f646060830185611eb7565b8181036080830152612f768184612eef565b90509695505050505050565b600081519050612f9181611f0d565b92915050565b600060208284031215612fad57612fac611dd9565b5b6000612fbb84828501612f82565b91505092915050565b600060a082019050612fd960008301886126e5565b612fe660208301876126e5565b8181036040830152612ff8818661250f565b9050818103606083015261300c818561250f565b905081810360808301526130208184612eef565b9050969550505050505056fea2646970667358221220b35239e92fdf2962944065c5b2ce31e5aa2f387882dab377271e87eeb1e87f3d64736f6c63430008140033",
  "linkReferences": {},
  "deployedLinkReferences": {}
}